:020000040800F2
:10000000180700209101000875070008070700087D
:1000100071070008410500089B0F00080000000060
:10002000000000000000000000000000C10B0008FC
:10003000B10500080000000009080008EB0B0008EB
:10004000A7010008A7010008A7010008A7010008F0
:10005000A7010008A7010008A7010008A7010008E0
:10006000A7010008A7010008A7010008A7010008D0
:10007000A7010008A7010008A7010008A7010008C0
:10008000A7010008A7010008A7010008A7010008B0
:10009000A7010008A7010008A7010008A7010008A0
:1000A000A7010008A7010008A7010008A701000890
:1000B000A7010008A7010008A7010008A701000880
:1000C000A7010008A7010008A7010008A701000870
:1000D000A7010008990C0008A7010008A701000863
:1000E000A7010008A7010008A701000800F002F816
:1000F00000F03FF80AA090E8000C82448344AAF183
:100100000107DA4501D100F034F8AFF2090EBAE880
:100110000F0013F0010F18BFFB1A43F0010318473B
:100120000C1000002C100000103A24BF78C878C1D1
:10013000FAD8520724BF30C830C144BF04680C60ED
:10014000704700000023002400250026103A28BF35
:1001500078C1FBD8520728BF30C148BF0B60704739
:10016000782900F06780002070471FB51FBD10B5CB
:1001700010BD00F0B3F91146FFF7F7FF00F074FF70
:1001800000F0D1F903B4FFF7F2FF03BC00F00EFF5B
:1001900008480047FEE7FEE7FEE7FEE7FEE7FEE76A
:1001A000FEE7FEE7FEE7FEE703480449044A054B85
:1001B00070470000ED00000818010020180700201B
:1001C0001803002018030020704700000FB40449F2
:1001D00010B503AA029800F053F910BC5DF814FBA7
:1001E0001800002070B5044685690068C10601D575
:1001F000302600E02026C00707D070BDD4E90121D9
:1002000030469047206A401C20626D1EF6D570BDB6
:1002100070B5044685690078C00707D170BDD4E980
:10022000012120209047206A401C20626D1EF6D5D7
:1002300070BD000070B504460D4621461068AFF34E
:1002400000802188090502D50F4A7A4402E00E4A4F
:100250007A440E32002104F1240305E000F00F0679
:100260000009965D5E54491C0028F7D120780023D0
:10027000000704D5702D02D009B1022311322046A7
:10028000BDE8704000F0A2B8A20E00002DE9F05FBA
:10029000894604464FF0000ADFF824B1FB44C0F859
:1002A00020A02046E168884700287DD0252806D078
:1002B000D4E901219047206A401C2062F1E7002523
:1002C0005F462046E16888472028064607DB312E36
:1002D00005D2B81910F8200C08B10543F1E7A807BA
:1002E00001D525F00405C4F81CA00027C4F818A007
:1002F0002A2E09D0304600F052FE38B304EB8708AE
:10030000303EC8F8186019E059F8041B204604EB89
:1003100087029161E1688847012F064618D1E0699C
:10032000002820DA25F020051DE0D8F8180000EBA1
:10033000800006EB40003038C8F818002046E1681D
:100340008847064600F02BFE0028EED1012F0AD088
:100350002E2E08D12046E16888477F1C0646022FD2
:1003600045F02005C4DBA069002803DA404245F0CF
:100370000105A061E80701D025F01005A6B1A6F19E
:100380004100192802D8203645F400654A46314616
:10039000204625604D46FFF7E3FE60B1012807D0F7
:1003A000ED1D25F0070000E007E000F1080978E7FF
:1003B00005F1040975E730467AE7206ABDE8F09F49
:1003C000780E000070477047704770472DE9F0477E
:1003D0000D4699469246044600F1240801688806B5
:1003E00004D5E06921F01001216000E00120A8425D
:1003F00001DD471B00E00027A1697A1902EB090023
:10040000081AA0612078C00602D42046FFF7EAFE51
:10041000002608E0D4E901211AF806009047206A76
:10042000401C761C20624E45F4DB2078C0060AD5BD
:100430002046FFF7D7FE06E0D4E90121302090479F
:10044000206A401C2062381EA7F10107F4DC07E097
:10045000D4E9012118F805009047206A401C206269
:10046000281EA5F10105F3DC2046FFF7D1FE207818
:10047000000602D50220BDE8F0870120FBE700005E
:10048000074B70B50D467B4400F011F80446284632
:1004900000F020F810B14FF0FF3070BD204670BD65
:1004A000BB0B000001694A1C02610878704700B567
:1004B0008FB0CDE901310021059105497944CDE99D
:1004C000031011466846FFF7E1FE0FB000BD0000C3
:1004D000E5FFFFFF007B00F080007047754600F0ED
:1004E0002BF8AE4605006946534620F007008546C6
:1004F00018B020B5FFF758FEBDE820404FF00006C9
:100500004FF000074FF000084FF0000B21F00701FB
:10051000AC46ACE8C009ACE8C009ACE8C009ACE83E
:10052000C0098D46704710B50446AFF300802046E1
:10053000BDE81040FFF726BE00487047B400002019
:1005400000BFFEE710B500F07DF9012000F03CFA95
:1005500000BF212000F006FA0028FAD0022000F0A7
:1005600037F8102000F026F84FF46011002000F05A
:100570004FFA012000F046FA00BF392000F0F2F9EE
:100580000128FAD1022000F051FA00BF00F008FA69
:100590000828FBD1002000F00BFA4FF4806000F037
:1005A00019FA002000F022FA002000F02FF910BD07
:1005B000704700000549096821F01001034A1160E5
:1005C0001146096801431160704700000020024095
:1005D00001460020034A106800F03800084310600C
:1005E00070470000002002402DE9F041024600253E
:1005F0000026002000230024002791F803C00CF0FF
:100600000F0591F803C00CF0100CBCF1000F03D0E3
:1006100091F802C04CEA050591F800C0BCF1000F4A
:1006200031D0146800202BE04FF0010C0CFA00F3DD
:10063000B1F800C00CEA03069E4220D183004FF0BF
:100640000F0C0CFA03F7BC4305FA03FC4CEA040454
:1006500091F803C0BCF1280F06D14FF0010C0CFA41
:1006600000FCC2F814C00AE091F803C0BCF1480FC6
:1006700005D14FF0010C0CFA00FCC2F810C0401C70
:100680000828D1D31460B1F800C0BCF1FF0F34DDED
:10069000546800202EE000F1080C4FF0010808FA21
:1006A0000CF3B1F800C00CEA03069E4221D183008E
:1006B0004FF00F0C0CFA03F7BC4305FA03FC4CEAAD
:1006C000040491F803C0BCF1280F05D100F1080C17
:1006D00008FA0CF8C2F8148091F803C0BCF1480F76
:1006E00007D100F1080C4FF0010808FA0CF8C2F825
:1006F0001080401C0828CED35460BDE8F0814161D1
:1007000070470161704700BFFEE7000008B5012196
:10071000042000F087F80121082000F083F814205D
:100720008DF803000120ADF8000003208DF80200D1
:1007300069460D48FFF758FF14208DF803004FF469
:100740000040ADF8000003208DF80200694607481C
:10075000FFF74AFF01210448FFF7D3FF4FF40041A0
:100760000248FFF7CEFF08BD00080140000C014021
:1007700000BFFEE7704710B54FF4407000F03AF844
:1007800010BD000070B5002100230F22C47804B30F
:10079000154C246804F4E064C4F5E064210AC1F156
:1007A0000403CA40447804FA03F1847814402143D6
:1007B00009010E4C0678A155047804F01F050124A8
:1007C000AC4005786D11AD0005F1E025C5F800419C
:1007D00009E0047804F01F050124AC40044D0678BC
:1007E000761145F8264070BD0CED00E000E400E015
:1007F00080E100E002490143024A116070470000B5
:100800000000FA050CED00E07047000001460020F2
:10081000034A506820F4404008435060704700008D
:100820000010024029B1064A92690243044B9A61C2
:1008300004E0034A92698243014B9A6170470000C9
:10084000001002400F48006840F001000D490860A8
:10085000084640680C4908400A4948600846006854
:100860000A490840074908600846006820F48020CB
:1008700008600846406820F4FE0048604FF41F00FE
:1008800088607047001002400000FFF8FFFFF6FE8E
:1008900030B500210022002400232D4D6D6805F0A5
:1008A0000C0121B1042905D0082923D105E0294DE7
:1008B000056022E0274D05601FE0254D6D6805F4B9
:1008C0007012234D6D6805F48034022505EB9242C9
:1008D0001CB9214D554305600BE01D4D6D6805F4B5
:1008E00000351DB11C4D5543056002E0194D5543BF
:1008F000056002E0174D056000BF00BF144D6D6834
:1009000005F0F0010909154D6B5C0568DD40456097
:100910000F4D6D6805F4E061090A104D6B5C456888
:10092000DD4085600A4D6D6805F46051C90A0B4DC4
:100930006B5C4568DD40C560054D6D6805F4404160
:10094000890B074D6B5CC568B5FBF3F5056130BDE0
:100950000010024000127A0000093D001E00002035
:100960002E00002010B501460022002300204A116D
:10097000012A02D1094C236806E0022A02D1074C61
:10098000236A01E0054C636A01F01F0201249440D0
:100990001C400CB1012000E0002010BD00100240FE
:1009A0000248406800F00C00704700000010024050
:1009B00001460020034A506820F0F00008435060D0
:1009C00070470000001002400149086070470000B5
:1009D0000000424201460020034A506820F4E060D3
:1009E000084350607047000000100240014600209C
:1009F000034A506820F4605040EAC10050607047DC
:100A000000100240014908667047000000004242A1
:100A100002460020044B586820F47C1042EA01038F
:100A20001843014B586070470010024001460020F7
:100A3000034A506820F003000843506070470000EC
:100A40000010024000B587B001210420FFF7EAFE44
:100A500001210803FFF7E6FEE020ADF8180018209A
:100A60008DF81B0003208DF81A0006A91748FFF720
:100A7000BBFDE0211548FFF744FE0020ADF804005F
:100A80004FF48270ADF806000020ADF80800022097
:100A9000ADF80A000120ADF80C004002ADF80E00E0
:100AA0003820ADF810000020ADF812000720ADF896
:100AB000140001A9064800F065F80121044800F07F
:100AC00047F8FF2000F006F807B000BD000801401D
:100AD0000030014070B50546002405E0601CC4B23A
:100AE000C82C01DD002070BD02210E4800F03CF84A
:100AF0000028F3D029460B4800F042F8002405E016
:100B0000601CC4B2C82C01DD0020ECE701210548BF
:100B100000F02AF80028F3D0024800F02EF8C0B206
:100B2000E1E700000030014010B5044607480088A6
:100B30004FF6C771084005490880084600882043E1
:100B400008800121014800F003F810BD0030014089
:100B500021B1028842F04002028004E002884FF690
:100B6000BF731A40028070470246002013890B4071
:100B70000BB1012000E000207047014688897047D2
:100B80008181704710B50022028802F441520B881F
:100B90004C8823438C882343CC8823430C892343EC
:100BA0004C8923438C892343CC8923431A430280F5
:100BB000838B4FF2FF74234083830B8A038210BD23
:100BC0007047042808D14FF0E021096941F0040181
:100BD0004FF0E022116107E04FF0E021096921F0B8
:100BE00004014FF0E02211617047704708B5012100
:100BF0000420FFF717FE10208DF80300ADF8000069
:100C000003208DF8020069460C48FFF7EDFC102028
:100C10008DF803000820ADF8000003208DF80200D5
:100C200069460648FFF7E0FCFFF70CFF1820FFF7C6
:100C30007BFF012000F004F808BD0000000801401F
:100C400010B50446012C07D108210648FFF759FDCD
:100C5000C82000F0D1F903E008210248FFF74FFD5A
:100C600010BD00000008014070B50446102109487D
:100C7000FFF745FD0320FFF72DFF2046FFF72AFF72
:100C8000FF20FFF727FF054610210248FFF739FD37
:100C9000284670BD0008014010B540F225511948A2
:100CA00000F0B7F860B3174800F06EF9C4B2204600
:100CB00000F086F80D2C0FD01348144909884454CD
:100CC00012490988481CC11700EB5161C911A0EBFA
:100CD000C1110E4A118013E000210C4A1088C2177E
:100CE00000EB5262D211A0EBC212074B9954074895
:100CF000008840F48070054908800A2000F060F800
:100D000010BD000000380140340000201C0000200D
:100D100010B586B0044601210420FFF783FD0121B0
:100D20008803FFF77FFD18208DF817004FF400703F
:100D3000ADF8140003208DF8160005A91E48FFF732
:100D400053FC04208DF817000002ADF814000320B6
:100D50008DF8160005A91848FFF746FC01940020FD
:100D6000ADF810000C20ADF80E000020ADF80C001E
:100D7000ADF80A00ADF8080001A9104800F098F895
:100D800025208DF800000F208DF8010000208DF83F
:100D9000020001208DF803006846FFF7F3FC0122F2
:100DA00040F22551054800F05EF80121034800F0AB
:100DB00017F806B010BD00000008014000380140DF
:100DC00010B5044600BF4021044800F015F8002883
:100DD000F9D02146014800F0DCF810BD0038014090
:100DE00021B1828942F40052828104E082894DF669
:100DF000FF731A408281704702460020B1F5007FE0
:100E000000D100BF13880B400BB1012000E000208F
:100E1000704770B50246002400230025002040F6EC
:100E20006A16B14200D100BFC1F3421501F01F03A1
:100E3000012606FA03F3012D02D19689334006E01C
:100E4000022D02D1168A334001E0968A33400C12FB
:100E5000012606FA04F41688344013B10CB10120BF
:100E600000E0002070BDF0B50346002400260025F8
:100E7000002040F66A17B94200D100BF1846C1F3FE
:100E8000421401F01F06012707FA06F5012C01D1D3
:100E90000C3004E0022C01D1103000E014301AB103
:100EA00007682F43076002E00768AF430760F0BDA3
:100EB0002DE9F04786B005460E460024A24600BF45
:100EC000A1460027B08900B100BF2F462C8A4CF6FE
:100ED000FF700440F08804432C82AC894EF6F31076
:100EE0000440B08831890843718908430443AC81C8
:100EF000AC8A4FF6FF400440B0890443AC8201A89D
:100F0000FFF7C6FC1F48874202D1DDF810A001E0C0
:100F1000DDF80CA0A88900F4004040B10AEBCA003B
:100F200000EB0A1031684900B0FBF1F807E00AEB6A
:100F3000CA0000EB0A1031688900B0FBF1F86420A8
:100F4000B8FBF0F004012009642101FB1089A88995
:100F500000F4004040B1322000EBC900B0FBF1F0DA
:100F600000F00700044308E0322000EB0910642180
:100F7000B0FBF1F000F00F0004432C8106B0BDE897
:100F8000F08700000038014001468888C0F308005F
:100F90007047C1F308028280704700BFFEE7303817
:100FA0000A2801D20120704700207047014600BF87
:100FB0007047000010B56FF00400FFF702FE0A480A
:100FC00000680A49B0FBF1F009490870084600784A
:100FD00000EB4001C1EBC0104FF6FF7101EAC00009
:100FE0000449088010BD00000400002000127A00AF
:100FF00000000020020000200146114A12884A43E6
:101000004FF0E0235A6100229A611A46126942F0B9
:1010100001021A6100BF4FF0E022106900F00102E6
:101020001AB100F48032002AF5D04FF0E0221269A4
:1010300022F001024FF0E0231A6100229A6170470A
:101040000200002070B504460D4600BF402105484F
:10105000FFF7D2FE0028F9D0E1B20248FFF799FF6E
:10106000204670BD0038014008B5FFF76BFAFFF766
:1010700082FBFFF79FFF4FF4E130FFF749FEFFF7D8
:1010800045FBFFF7B3FD24E000200090002408E0BA
:1010900004F1B601C8B2FFF7E7FD0DF80400601CCB
:1010A000C4B2042CF4DB0BA0FFF790F8002406E098
:1010B0001DF804100BA0FFF789F8601CC4B2042CC3
:1010C000F6DB0AA0FFF782F84FF4FA70FFF794FFFF
:1010D00000BFD9E7544441353233352049443A20E2
:1010E00000000000253032582C0000000D0A0000DE
:1010F000303132333435363738394142434445464E
:101100004030580030313233343536373839616247
:101110006364656640307800040000080000000049
:101120000000000200010000100000004C11000847
:101130000000002034000000280100088011000891
:1011400034000020E4060000440100080000000014
:101150000090D00300000000000000000102030422
:10116000060708090000000000000000000001025E
:10117000030401020304060708090204060800002C
:04000005080000ED02
:00000001FF
