:020000040800F2
:100000001807002089010008410600085304000871
:100010003D060008310200089F0E000800000000A5
:10002000000000000000000000000000710B00084C
:10003000A102000800000000370900089B0B00081F
:100040009F0100089F0100089F0100089F01000810
:100050009F0100089F0100089F0100089F01000800
:100060009F0100089F0100089F0100089F010008F0
:100070009F0100089F0100089F0100089F010008E0
:100080009F0100089F0100089F0100089F010008D0
:100090009F0100089F0100089F0100089F010008C0
:1000A0009F0100089F0100089F0100089F010008B0
:1000B0009F0100089F0100089F0100089F010008A0
:1000C0009F0100089F0100089F0100089F01000890
:1000D0009F0100089D0B00089F0100089F01000878
:1000E0009F0100089F0100089F01000800F002F82E
:1000F00000F03AF80AA090E8000C82448344AAF188
:100100000107DA4501D100F02FF8AFF2090EBAE885
:100110000F0013F0010F18BFFB1A43F0010318473B
:100120001811000038110000103A24BF78C878C1B7
:10013000FAD8520724BF30C830C144BF04680C60ED
:10014000704700000023002400250026103A28BF35
:1001500078C1FBD8520728BF30C148BF0B60704739
:100160001FB51FBD10B510BD00F02FF81146FFF7E9
:10017000F7FF00F007FF00F04DF803B4FFF7F2FFC0
:1001800003BC00F08EFE000008480047FEE7FEE7D3
:10019000FEE7FEE7FEE7FEE7FEE7FEE7FEE7FEE737
:1001A00003480449044A054B70470000ED0000086D
:1001B0001801002018070020180300201803002051
:1001C00070477047704770477047754600F02CF8CD
:1001D000AE4605006946534620F00700854618B034
:1001E00020B5FFF7DDFFBDE820404FF000064FF0DF
:1001F00000074FF000084FF0000B21F00701AC465C
:10020000ACE8C009ACE8C009ACE8C009ACE8C0097A
:100210008D46704710B50446AFF300802046BDE818
:100220001040FFF7AABF000000487047B40000204C
:1002300000BFFEE710B500F09BFB012000F05AFC68
:1002400000BF212000F024FC0028FAD0022000F09A
:1002500067F8102000F056F84FF46011002000F00D
:100260006DFC012000F064FC00BF392000F010FCA0
:100270000128FAD1022000F06FFC00BF00F026FC3C
:100280000828FBD1002000F029FC4FF4806000F02A
:1002900037FC002000F040FC002000F04DFB10BDBA
:1002A0007047000010B503A20121132000F028FBC5
:1002B00010BD00007777772E7869616F6A696A6987
:1002C0006A692E636F6D000010B50022114610465A
:1002D00000F0CCFA01220221002000F0C7FA10BD84
:1002E00010B503A20021132000F00AFB10BD00008E
:1002F00053503337205265636569766572205632F4
:100300002E3000000549096821F01001034A1160F0
:100310001146096801431160704700000020024047
:1003200001460020034A106800F0380008431060BE
:1003300070470000002002402DE9F04102460025F0
:100340000026002000230024002791F803C00CF0B1
:100350000F0591F803C00CF0100CBCF1000F03D096
:1003600091F802C04CEA050591F800C0BCF1000FFD
:1003700031D0146800202BE04FF0010C0CFA00F390
:10038000B1F800C00CEA03069E4220D183004FF072
:100390000F0C0CFA03F7BC4305FA03FC4CEA040407
:1003A00091F803C0BCF1280F06D14FF0010C0CFAF4
:1003B00000FCC2F814C00AE091F803C0BCF1480F79
:1003C00005D14FF0010C0CFA00FCC2F810C0401C23
:1003D0000828D1D31460B1F800C0BCF1FF0F34DDA0
:1003E000546800202EE000F1080C4FF0010808FAD4
:1003F0000CF3B1F800C00CEA03069E4221D1830041
:100400004FF00F0C0CFA03F7BC4305FA03FC4CEA5F
:10041000040491F803C0BCF1280F05D100F1080CC9
:1004200008FA0CF8C2F8148091F803C0BCF1480F28
:1004300007D100F1080C4FF0010808FA0CF8C2F8D7
:100440001080401C0828CED35460BDE8F0810161C3
:10045000704700BFFEE7000008B50121042000F04E
:1004600077FAC020ADF8000014208DF803000320B7
:100470008DF8020069460448FFF75EFFC02102487C
:10048000FFF7E5FF08BD0000000C014070B5044611
:100490001248006820F07040104908600846006863
:1004A00040F04050086000200D490860002511E030
:1004B000042000F041FDE0090949091D08606006BB
:1004C000040E01200749C1F8980100200449086082
:1004D000681CC5B2082DEBDB70BD0000000C0140AC
:1004E000988121420080214210B50F48006820F019
:1004F00070400D4908600846006840F040500860B0
:1005000001200A4908600A49C1F89801022000F058
:1005100013FD002005490860022000F00DFD0020B9
:100520000349C1F8980110BD000C01409C81214293
:100530000080214210B50F48006820F070400D493E
:1005400008600846006840F04050086000200A49F2
:1005500008600A49C1F89801022000F0EDFC012072
:100560000549091F08600549C1F89C01022000F0F7
:10057000E3FC10BD000C01409C812142008021421F
:1005800010B51248006820F0704010490860084615
:10059000006840F08040086001200D4908600D4966
:1005A000C1F8980107E0601CC4B2FA2C03DDFFF724
:1005B000C1FF012010BD0648803800680028F2D134
:1005C0000349091F086000BFF4E70000000C014068
:1005D0009C8121420080214208B50121042000F0C5
:1005E000B7F90121082000F0B3F914208DF80300B9
:1005F0000120ADF8000003208DF8020069460D4887
:10060000FFF79AFE14208DF803004FF40040ADF878
:10061000000003208DF8020069460748FFF78CFEB2
:1006200001210448FFF713FF4FF400410248FFF790
:100630000EFF08BD00080140000C014000BFFEE7AE
:10064000704710B54FF4407000F03AF810BD00004C
:1006500070B5002100230F22C47804B3154C246820
:1006600004F4E064C4F5E064210AC1F10403CA4063
:10067000447804FA03F184781440214309010E4CB4
:100680000678A155047804F01F050124AC400578D4
:100690006D11AD0005F1E025C5F8004109E00478D1
:1006A00004F01F050124AC40044D0678761145F88E
:1006B000264070BD0CED00E000E400E080E100E0C9
:1006C00002490143024A1160704700000000FA0528
:1006D0000CED00E070B5002418E0002504F00701DF
:1006E00041F0B00000F073F8284600F070F845F0D3
:1006F000100000F06CF8002604E0002000F085F8FF
:10070000701CC6B2802EF8DB601CC4B2082CE4DB7F
:1007100070BD10B5FFF7A0FE4FF4967000F0E6FB39
:10072000AE2000F054F8002000F051F8102000F046
:100730004EF8402000F04BF8812000F048F8CF2020
:1007400000F045F8A12000F042F8C82000F03FF882
:10075000A62000F03CF8A82000F039F83F2000F077
:1007600036F8D32000F033F8002000F030F8D52020
:1007700000F02DF8802000F02AF8D92000F027F8AA
:10078000F12000F024F8DA2000F021F8122000F027
:100790001EF8DB2000F01BF8402000F018F82020A5
:1007A00000F015F8022000F012F88D2000F00FF88C
:1007B000142000F00CF8A42000F009F8A62000F0A6
:1007C00006F8FFF787FFAF2000F001F810BD70B505
:1007D00005460024FFF788FE7820FFF757FEFFF755
:1007E000CFFE04430020FFF751FEFFF7C9FE04438C
:1007F0002846FFF74BFEFFF7C3FE0443FFF79AFEC0
:100800000CB1002070BD0120FCE770B50546002446
:10081000FFF76AFE7820FFF739FEFFF7B1FE0443C9
:100820004020FFF733FEFFF7ABFE04432846FFF7F7
:100830002DFEFFF7A5FE0443FFF77CFE0CB1002060
:1008400070BD0120FCE770B504460D4605F1B0010E
:10085000C8B2FFF7BCFF102141EA1410FFF7B7FF41
:1008600004F00F00FFF7B3FF70BD00002DE9F04169
:1008700007460E46154631463846FFF7E4FF00248A
:1008800007E00F4901EB4511085DFFF7BEFF601C53
:10089000C4B2102CF5DB701CC1B23846FFF7D3FF91
:1008A000002409E0064901EB451204F11001505CF7
:1008B000FFF7ABFF601CC4B2102CF3DBBDE8F08186
:1008C000F81100082DE9F04106460F461546394655
:1008D0003046FFF7B8FF00240BE0A5F1200101EB43
:1008E0004101064A02EB4101085DFFF78EFF601CE3
:1008F000C4B2062CF1DBBDE8F0810000B80F00089F
:100900002DE9F04104460F46154600260EE0AA5D8B
:1009100039462046FFF7D6FFA01DC4B2A01D7F2890
:1009200002DD0024781CC7B2701CC6B2A85D002886
:10093000EDD1BDE8F081704701460020034A5068C0
:1009400020F440400843506070470000001002400F
:1009500029B1064A92690243044B9A6104E0034AB2
:1009600092698243014B9A61704700000010024077
:100970000F48006840F001000D49086008464068D3
:100980000C4908400A494860084600680A4908407E
:10099000074908600846006820F48020086008467F
:1009A000406820F4FE0048604FF41F0088607047E4
:1009B000001002400000FFF8FFFFF6FE30B50021F6
:1009C0000022002400232D4D6D6805F00C0121B19B
:1009D000042905D0082923D105E0294D056022E02E
:1009E000274D05601FE0254D6D6805F47012234DFD
:1009F0006D6805F48034022505EB92421CB9214D47
:100A0000554305600BE01D4D6D6805F400351DB1C3
:100A10001C4D5543056002E0194D5543056002E049
:100A2000174D056000BF00BF144D6D6805F0F00163
:100A30000909154D6B5C0568DD4045600F4D6D681B
:100A400005F4E061090A104D6B5C4568DD40856086
:100A50000A4D6D6805F46051C90A0B4D6B5C456821
:100A6000DD40C560054D6D6805F44041890B074DBB
:100A70006B5CC568B5FBF3F5056130BD0010024045
:100A800000127A0000093D001E0000202E00002008
:100A900010B501460022002300204A11012A02D18C
:100AA000094C236806E0022A02D1074C236A01E0C0
:100AB000054C636A01F01F02012494401C400CB1F4
:100AC000012000E0002010BD0010024002484068F4
:100AD00000F00C00704700000010024001460020AA
:100AE000034A506820F0F00008435060704700004F
:100AF00000100240014908607047000000004242B7
:100B000001460020034A506820F4E060084350602A
:100B1000704700000010024001460020034A506860
:100B200020F4605040EAC10050607047001002405D
:100B3000014908667047000000004242024600205A
:100B4000044B586820F47C1042EA01031843014B1F
:100B5000586070470010024001460020034A506868
:100B600020F003000843506070470000001002406E
:100B70007047042808D14FF0E021096941F00401D1
:100B80004FF0E022116107E04FF0E021096921F008
:100B900004014FF0E02211617047704710B540F238
:100BA0002551194800F0B7F860B3174800F06EF906
:100BB000C4B2204600F086F80D2C0FD0134814491B
:100BC0000988445412490988481CC11700EB516137
:100BD000C911A0EBC1110E4A118013E000210C4A8B
:100BE0001088C21700EB5262D211A0EBC212074B61
:100BF00099540748008840F48070054908800A200D
:100C000000F060F810BD0000003801403400002002
:100C10001C00002010B586B0044601210420FFF717
:100C200097FE01218803FFF793FE18208DF8170027
:100C30004FF40070ADF8140003208DF8160005A9DC
:100C40001E48FFF779FB04208DF817000002ADF86D
:100C5000140003208DF8160005A91848FFF76CFB57
:100C600001940020ADF810000C20ADF80E0000201B
:100C7000ADF80C00ADF80A00ADF8080001A9104865
:100C800000F098F825208DF800000F208DF8010065
:100C900000208DF8020001208DF803006846FFF760
:100CA000D7FC012240F22551054800F05EF80121F1
:100CB000034800F017F806B010BD0000000801401E
:100CC0000038014010B5044600BF4021044800F040
:100CD00015F80028F9D02146014800F0DCF810BDD5
:100CE0000038014021B1828942F40052828104E03F
:100CF00082894DF6FF731A408281704702460020B8
:100D0000B1F5007F00D100BF13880B400BB101206B
:100D100000E00020704770B5024600240023002543
:100D2000002040F66A16B14200D100BFC1F342155F
:100D300001F01F03012606FA03F3012D02D1968963
:100D4000334006E0022D02D1168A334001E0968A34
:100D500033400C12012606FA04F41688344013B10D
:100D60000CB1012000E0002070BDF0B50346002466
:100D700000260025002040F66A17B94200D100BFC6
:100D80001846C1F3421401F01F06012707FA06F5C1
:100D9000012C01D10C3004E0022C01D1103000E014
:100DA00014301AB107682F43076002E00768AF43A9
:100DB0000760F0BD2DE9F04786B005460E460024D9
:100DC000A24600BFA1460027B08900B100BF2F4650
:100DD0002C8A4CF6FF700440F08804432C82AC89C6
:100DE0004EF6F3100440B0883189084371890843F6
:100DF0000443AC81AC8A4FF6FF400440B089044301
:100E0000AC8201A8FFF7DAFD1F48874202D1DDF866
:100E100010A001E0DDF80CA0A88900F4004040B16A
:100E20000AEBCA0000EB0A1031684900B0FBF1F888
:100E300007E00AEBCA0000EB0A1031688900B0FB3A
:100E4000F1F86420B8FBF0F004012009642101FBF3
:100E50001089A88900F4004040B1322000EBC9009D
:100E6000B0FBF1F000F00700044308E0322000EB93
:100E700009106421B0FBF1F000F00F0004432C8155
:100E800006B0BDE8F08700000038014001468888C0
:100E9000C0F308007047C1F308028280704700BFAA
:100EA000FEE7014600BF704710B56FF00400FFF782
:100EB00060FE0A4800680A49B0FBF1F00949087071
:100EC0000846007800EB4001C1EBC0104FF6FF71FF
:100ED00001EAC0000449088010BD000004000020A1
:100EE00000127A0000000020020000200146114A92
:100EF00012884A434FF0E0235A6100229A611A4651
:100F0000126942F001021A6100BF4FF0E02210693D
:100F100000F001021AB100F48032002AF5D04FF03F
:100F2000E022126922F001024FF0E0231A61002250
:100F30009A617047020000200146114A12784A4324
:100F40004FF0E0235A6100229A611A46126942F07A
:100F500001021A6100BF4FF0E022106900F00102A7
:100F60001AB100F48032002AF5D04FF0E022126965
:100F700022F001024FF0E0231A6100229A617047CB
:100F800000000020FFF756F9FFF75BFBFFF78CFF2F
:100F90004FF4E130FFF73EFEFFF71EFBFFF7B9FB12
:100FA000FFF792F9FFF77EF9FFF79AF903E04FF4A4
:100FB000FA70FFF79BFFFAE7000000000000000056
:100FC000BE000000000600060000147F147F14001D
:100FD000004C7A4F320000661668660000384F4DAC
:100FE000320000000003000000003E41000000004D
:100FF000413E0000001C3E1C000000083E080000AE
:101000000000006000000008080808000000400020
:1010100000000040300C0300003E41413E00004211
:101020007F400000006251494600002249493600D5
:101030000038267F2000004F49493100003E4949D1
:1010400032000003710907000036494936000026C6
:1010500049493E0000002400000000402400000038
:10106000000814224100001414141400004122143A
:101070000800000251090600000E71497E00007E42
:1010800011117E00007F49493600003E4141220097
:10109000007F41413E00007F49494100007F09092E
:1010A0000100003E41493A00007F08087F000041EE
:1010B0007F410000003040403F00007F0814630083
:1010C000007F40404000007F06067F00007F06183A
:1010D0007F00007F41417F00007F09090600003E3C
:1010E00051617E00007F19294600002649493200DF
:1010F00000017F010100003F40403F00000F707081
:101100000F00007F30307F0000631C1C630003046D
:10111000780403000061594D430000007F41000046
:10112000030C304000000000417F0000000201027B
:10113000000000404040400000000300000000208C
:1011400058587800007F4848300000304848480030
:10115000003048487F0000305858100000087C0AD2
:1011600008000010A8A87800007F087800000000A0
:1011700074000000008080740000007F1028480088
:1011800000407F4000000078087878000078080868
:10119000700000304848300000F848483000003007
:1011A0004848F800007810080800005058682800E7
:1011B00000087C480000003840407800001860605B
:1011C00018001860386018000048303048000018D7
:1011D000A0A0780000486858480000087741000047
:1011E00000007F00000000417708000000020102BB
:1011F0000100013C42424200C0E0380C04262202B9
:101200000202060418F0000000071C302020604095
:101210004040602020110F060000F0180406020272
:10122000022226040C38E0C0060F11202060404046
:1012300040602020301C07005812000800000020E9
:1012400034000000280100088C120008340000203F
:10125000E406000044010008000000000090D003F4
:101260000000000000000000010203040607080956
:101270000000000000000000000001020304010261
:0C12800003040607080902040608000029
:04000005080000ED02
:00000001FF
