:020000040800F2
:10000000600600206D010008F503000843030008A6
:10001000F10300081F0200081D0400080000000092
:1000200000000000000000000000000019040008AB
:100030002302000800000000F70300081B0400086A
:100040008301000883010008830100088301000880
:100050008301000883010008830100088301000870
:100060008301000883010008830100088301000860
:100070008301000883010008830100088301000850
:100080008301000883010008830100088301000840
:100090008301000883010008830100088301000830
:1000A0008301000883010008830100088301000820
:1000B0008301000883010008830100088301000810
:1000C0008301000883010008830100088301000800
:1000D00083010008830100088301000883010008F0
:1000E00083010008830100088301000800F002F882
:1000F00000F02CF80AA090E8000C82448344AAF196
:100100000107DA4501D100F021F8AFF2090EBAE893
:100110000F0013F0010F18BFFB1A43F0010318473B
:1001200014030000240300000023002400250026FF
:10013000103A28BF78C1FBD8520728BF30C148BF4A
:100140000B6070471FB51FBD10B510BD00F02DF836
:100150001146FFF7F7FF00F063F900F04BF803B426
:10016000FFF7F2FF03BC00F053F800000848004717
:10017000FEE7FEE7FEE7FEE7FEE7FEE7FEE7FEE757
:10018000FEE7FEE703480449044A054B70470000B8
:10019000ED000008600000206006002060020020E2
:1001A00060020020704770477047754600F02CF8D9
:1001B000AE4605006946534620F00700854618B054
:1001C00020B5FFF7DFFFBDE820404FF000064FF0FD
:1001D00000074FF000084FF0000B21F00701AC467C
:1001E000ACE8C009ACE8C009ACE8C009ACE8C0099B
:1001F0008D46704710B50446AFF300802046BDE839
:100200001040FFF7ACBF000000487047000000201E
:1002100001491820ABBEFEE726000200704700BF70
:10022000FEE770472DE9F041024600250026002038
:1002300000230024002791F803C00CF00F0591F86B
:1002400003C00CF0100CBCF1000F03D091F802C0F9
:100250004CEA050591F800C0BCF1000F31D01468DC
:1002600000202BE04FF0010C0CFA00F3B1F800C0B5
:100270000CEA03069E4220D183004FF00F0C0CFACB
:1002800003F7BC4305FA03FC4CEA040491F803C0ED
:10029000BCF1280F06D14FF0010C0CFA00FCC2F89B
:1002A00014C00AE091F803C0BCF1480F05D14FF02B
:1002B000010C0CFA00FCC2F810C0401C0828D1D375
:1002C0001460B1F800C0BCF1FF0F34DD54680020A9
:1002D0002EE000F1080C4FF0010808FA0CF3B1F819
:1002E00000C00CEA03069E4221D183004FF00F0CA0
:1002F0000CFA03F7BC4305FA03FC4CEA040491F83A
:1003000003C0BCF1280F05D100F1080C08FA0CF865
:10031000C2F8148091F803C0BCF1480F07D100F176
:10032000080C4FF0010808FA0CF8C2F81080401CC5
:100330000828CED35460BDE8F08141617047016167
:10034000704700BFFEE7000008B50121042000F05F
:1003500053F80121082000F04FF814208DF8030015
:100360000120ADF8000003208DF8020069460D4819
:10037000FFF758FF14208DF803004FF40040ADF84C
:10038000000003208DF8020069460748FFF74AFF86
:1003900001210448FFF7D3FF4FF400410248FFF763
:1003A000CEFF08BD00080140000C014010B5044616
:1003B000012C04D1C1030548FFF7BFFF04E04FF44F
:1003C00000410248FFF7BBFF10BD0000000C0140D8
:1003D00010B50446012C04D101210448FFF7ADFFFC
:1003E00003E001210148FFF7AAFF10BD000801400A
:1003F00000BFFEE77047704729B1064A9269024381
:10040000044B9A6104E0034A92698243014B9A616A
:1004100070470000001002407047704700BFFEE7C1
:10042000FFF792FF0120FFF7D3FF0120FFF7BEFF88
:1004300000BFFEE744040008000000206006000042
:040440002801000887
:04000005080000ED02
:00000001FF
