:020000040800F2
:100000007806002089010008B1040008FF030008F9
:10001000AD0400083B02000845060008000000008F
:1000200000000000000000000000000019060008A9
:10003000AB02000800000000B304000843060008FB
:100040009F0100089F0100089F0100089F01000810
:100050009F0100089F0100089F0100089F01000800
:100060009F0100089F0100089F0100089F010008F0
:100070009F0100089F0100089F0100089F010008E0
:100080009F0100089F0100089F0100089F010008D0
:100090009F0100089F0100089F0100089F010008C0
:1000A0009F0100089F0100089F0100089F010008B0
:1000B0009F0100089F0100089F0100089F010008A0
:1000C0009F0100089F0100089F0100089F01000890
:1000D0009F0100089F0100089F0100089F01000880
:1000E0009F0100089F0100089F01000800F002F82E
:1000F00000F03AF80AA090E8000C82448344AAF188
:100100000107DA4501D100F02FF8AFF2090EBAE885
:100110000F0013F0010F18BFFB1A43F0010318473B
:10012000F005000010060000103A24BF78C878C11E
:10013000FAD8520724BF30C830C144BF04680C60ED
:10014000704700000023002400250026103A28BF35
:1001500078C1FBD8520728BF30C148BF0B60704739
:100160001FB51FBD10B510BD00F02DF81146FFF7EB
:10017000F7FF00F0B1FA00F04BF803B4FFF7F2FF1D
:1001800003BC00F053F8000008480047FEE7FEE714
:10019000FEE7FEE7FEE7FEE7FEE7FEE7FEE7FEE737
:1001A00003480449044A054B70470000ED0000086D
:1001B00078000020780600207802002078020020D5
:1001C000704770477047754600F02CF8AE46050042
:1001D0006946534620F00700854618B020B5FFF762
:1001E000DFFFBDE820404FF000064FF000074FF062
:1001F00000084FF0000B21F00701AC46ACE8C00945
:10020000ACE8C009ACE8C009ACE8C0098D4670474D
:1002100010B50446AFF300802046BDE81040FFF75C
:10022000ACBF0000004870471800002001491820AA
:10023000ABBEFEE726000200704700BFFEE710B528
:1002400000F054F9012000F0A9F900BF212000F0CE
:1002500073F90028FAD0022000F036F8102000F0E0
:1002600025F84FF46011002000F0BCF9012000F0E7
:10027000B3F900BF392000F05FF90128FAD102205C
:1002800000F0BEF900BF00F075F90828FBD100208E
:1002900000F078F94FF4806000F086F9002000F05B
:1002A0008FF9002000F006F910BD70470549096874
:1002B00021F01001034A11601146096801431160E1
:1002C000704700000020024001460020034A1068E9
:1002D00000F0380008431060704700000020024022
:1002E0002DE9F041024600250026002000230024CD
:1002F000002791F803C00CF00F0591F803C00CF033
:10030000100CBCF1000F03D091F802C04CEA0505B7
:1003100091F800C0BCF1000F31D0146800202BE030
:100320004FF0010C0CFA00F3B1F800C00CEA030620
:100330009E4220D183004FF00F0C0CFA03F7BC4310
:1003400005FA03FC4CEA040491F803C0BCF1280F41
:1003500006D14FF0010C0CFA00FCC2F814C00AE000
:1003600091F803C0BCF1480F05D14FF0010C0CFA15
:1003700000FCC2F810C0401C0828D1D31460B1F8AA
:1003800000C0BCF1FF0F34DD546800202EE000F106
:10039000080C4FF0010808FA0CF3B1F800C00CEAA1
:1003A00003069E4221D183004FF00F0C0CFA03F795
:1003B000BC4305FA03FC4CEA040491F803C0BCF109
:1003C000280F05D100F1080C08FA0CF8C2F81480C7
:1003D00091F803C0BCF1480F07D100F1080C4FF0B1
:1003E000010808FA0CF8C2F81080401C0828CED387
:1003F0005460BDE8F081416170470161704700BF02
:10040000FEE7000008B50121042000F05FF801219B
:10041000082000F05BF814208DF803000120ADF8EF
:10042000000003208DF8020069460D48FFF758FFD1
:1004300014208DF803004FF40040ADF800000320B5
:100440008DF8020069460748FFF74AFF012104487A
:10045000FFF7D3FF4FF400410248FFF7CEFF08BD7E
:1004600000080140000C014010B50446012C04D1E5
:10047000C1030548FFF7BFFF04E04FF40041024805
:10048000FFF7BBFF10BD0000000C014010B5044693
:10049000012C04D101210448FFF7ADFF03E0012145
:1004A0000148FFF7AAFF10BD0008014000BFFEE7AA
:1004B0007047704701460020034A506820F44040CE
:1004C00008435060704700000010024029B1064AFE
:1004D00092690243044B9A6104E0034A92698243A1
:1004E000014B9A6170470000001002400F480068FD
:1004F00040F001000D490860084640680C4908407A
:100500000A494860084600680A49084007490860E7
:100510000846006820F4802008600846406820F4FF
:10052000FE0048604FF41F008860704700100240D2
:100530000000FFF8FFFFF6FE10B501460022002381
:1005400000204A11012A02D1094C236806E0022A40
:1005500002D1074C236A01E0054C636A01F01F02D7
:10056000012494401C400CB1012000E0002010BD8B
:10057000001002400248406800F00C007047000084
:100580000010024001460020034A506820F0F000AD
:1005900008435060704700000010024001490860A5
:1005A000704700000000424201460020034A5068A4
:1005B00020F4E060084350607047000000100240E3
:1005C00001460020034A506820F4605040EAC10010
:1005D00050607047001002400149086670470000F3
:1005E0000000424202460020044B586820F47C1070
:1005F00042EA01031843014B586070470010024063
:1006000001460020034A506820F003000843506070
:1006100070470000001002407047042808D14FF0D6
:10062000E021096941F004014FF0E022116107E087
:100630004FF0E021096921F004014FF0E02211613F
:100640007047704700BFFEE710B56FF00400FFF77A
:10065000E4FF0A4800680A49B0FBF1F00949087054
:100660000846007800EB4001C1EBC0104FF6FF7167
:1006700001EAC0000449088010BD0000000000200D
:1006800000127A0014000020160000200146114AD2
:1006900012884A434FF0E0235A6100229A611A46B9
:1006A000126942F001021A6100BF4FF0E0221069A6
:1006B00000F001021AB100F48032002AF5D04FF0A8
:1006C000E022126922F001024FF0E0231A610022B9
:1006D0009A61704716000020FFF7B1FDFFF7B4FFE5
:1006E000FFF790FE13E00120FFF7D0FE0020FFF798
:1006F000BBFE4FF4FA70FFF7C9FF0020FFF7C6FEFC
:100700000120FFF7B1FE4FF4FA70FFF7BFFFEAE7F1
:100710003007000800000020180000002801000831
:100720004807000818000020600600004401000887
:100730000090D0030000000000000000010203044C
:08074000060708090000000093
:04000005080000ED02
:00000001FF
