:020000040800F2
:10000000180700209101000855090008670700083B
:100010005109000841050008AB1400080000000069
:10002000000000000000000000000000F90F0008C0
:10003000B105000800000000430C00082310000870
:10004000A7010008A7010008A7010008A7010008F0
:10005000A7010008A7010008A7010008A7010008E0
:10006000A7010008A7010008A7010008A7010008D0
:10007000A7010008A7010008A7010008A7010008C0
:10008000A7010008A7010008A7010008A7010008B0
:10009000A7010008A7010008A7010008A7010008A0
:1000A000A7010008A7010008A7010008A701000890
:1000B000A7010008A7010008A7010008A701000880
:1000C000A7010008A7010008A7010008A701000870
:1000D000A7010008A9110008A7010008A70100084E
:1000E000A7010008A7010008A701000800F002F816
:1000F00000F03FF80AA090E8000C82448344AAF183
:100100000107DA4501D100F034F8AFF2090EBAE880
:100110000F0013F0010F18BFFB1A43F0010318473B
:100120003418000054180000103A24BF78C878C171
:10013000FAD8520724BF30C830C144BF04680C60ED
:10014000704700000023002400250026103A28BF35
:1001500078C1FBD8520728BF30C148BF0B60704739
:10016000782900F06780002070471FB51FBD10B5CB
:1001700010BD00F0B3F91146FFF7F7FF01F022FAC6
:1001800000F0D1F903B4FFF7F2FF03BC01F096F9D8
:1001900008480047FEE7FEE7FEE7FEE7FEE7FEE76A
:1001A000FEE7FEE7FEE7FEE703480449044A054B85
:1001B00070470000ED00000818010020180700201B
:1001C0001803002018030020704700000FB40449F2
:1001D00010B503AA029800F053F910BC5DF814FBA7
:1001E0001800002070B5044685690068C10601D575
:1001F000302600E02026C00707D070BDD4E90121D9
:1002000030469047206A401C20626D1EF6D570BDB6
:1002100070B5044685690078C00707D170BDD4E980
:10022000012120209047206A401C20626D1EF6D5D7
:1002300070BD000070B504460D4621461068AFF34E
:1002400000802188090502D50F4A7A4402E00E4A4F
:100250007A440E32002104F1240305E000F00F0679
:100260000009965D5E54491C0028F7D120780023D0
:10027000000704D5702D02D009B1022311322046A7
:10028000BDE8704000F0A2B8CD1600002DE9F05F87
:10029000894604464FF0000ADFF824B1FB44C0F859
:1002A00020A02046E168884700287DD0252806D078
:1002B000D4E901219047206A401C2062F1E7002523
:1002C0005F462046E16888472028064607DB312E36
:1002D00005D2B81910F8200C08B10543F1E7A807BA
:1002E00001D525F00405C4F81CA00027C4F818A007
:1002F0002A2E09D0304601F0DAF838B304EB87082B
:10030000303EC8F8186019E059F8041B204604EB89
:1003100087029161E1688847012F064618D1E0699C
:10032000002820DA25F020051DE0D8F8180000EBA1
:10033000800006EB40003038C8F818002046E1681D
:100340008847064601F0B3F80028EED1012F0AD005
:100350002E2E08D12046E16888477F1C0646022FD2
:1003600045F02005C4DBA069002803DA404245F0CF
:100370000105A061E80701D025F01005A6B1A6F19E
:100380004100192802D8203645F400654A46314616
:10039000204625604D46FFF7E3FE60B1012807D0F7
:1003A000ED1D25F0070000E007E000F1080978E7FF
:1003B00005F1040975E730467AE7206ABDE8F09F49
:1003C000A316000070477047704770472DE9F0474B
:1003D0000D4699469246044600F1240801688806B5
:1003E00004D5E06921F01001216000E00120A8425D
:1003F00001DD471B00E00027A1697A1902EB090023
:10040000081AA0612078C00602D42046FFF7EAFE51
:10041000002608E0D4E901211AF806009047206A76
:10042000401C761C20624E45F4DB2078C0060AD5BD
:100430002046FFF7D7FE06E0D4E90121302090479F
:10044000206A401C2062381EA7F10107F4DC07E097
:10045000D4E9012118F805009047206A401C206269
:10046000281EA5F10105F3DC2046FFF7D1FE207818
:10047000000602D50220BDE8F0870120FBE700005E
:10048000074B70B50D467B4400F011F80446284632
:1004900000F020F810B14FF0FF3070BD204670BD65
:1004A0001711000001694A1C02610878704700B505
:1004B0008FB0CDE901310021059105497944CDE99D
:1004C000031011466846FFF7E1FE0FB000BD0000C3
:1004D000E5FFFFFF007B00F080007047754600F0ED
:1004E0002BF8AE4605006946534620F007008546C6
:1004F00018B020B5FFF758FEBDE820404FF00006C9
:100500004FF000074FF000084FF0000B21F00701FB
:10051000AC46ACE8C009ACE8C009ACE8C009ACE83E
:10052000C0098D46704710B50446AFF300802046E1
:10053000BDE81040FFF726BE00487047B400002019
:1005400000BFFEE710B500F099FB012000F058FC59
:1005500000BF212000F022FC0028FAD0022000F089
:1005600067F8102000F056F84FF46011002000F0FA
:100570006BFC012000F062FC00BF392000F00EFC93
:100580000128FAD1022000F06DFC00BF00F024FC2D
:100590000828FBD1002000F027FC4FF4806000F019
:1005A00035FC002000F03EFC002000F04BFB10BDAD
:1005B0007047000010B503A20121132000F026FBB4
:1005C00010BD00007777772E7869616F6A696A6974
:1005D0006A692E636F6D000010B500221146104647
:1005E00000F0CAFA01220221002000F0C5FA10BD75
:1005F00010B503A20021132000F008FB10BD00007D
:1006000053503337205265636569766572205632E0
:100610002E3000000549096821F01001034A1160DD
:100620001146096801431160704700000020024034
:1006300001460020034A106800F0380008431060AB
:1006400070470000002002402DE9F04102460025DD
:100650000026002000230024002791F803C00CF09E
:100660000F0591F803C00CF0100CBCF1000F03D083
:1006700091F802C04CEA050591F800C0BCF1000FEA
:1006800031D0146800202BE04FF0010C0CFA00F37D
:10069000B1F800C00CEA03069E4220D183004FF05F
:1006A0000F0C0CFA03F7BC4305FA03FC4CEA0404F4
:1006B00091F803C0BCF1280F06D14FF0010C0CFAE1
:1006C00000FCC2F814C00AE091F803C0BCF1480F66
:1006D00005D14FF0010C0CFA00FCC2F810C0401C10
:1006E0000828D1D31460B1F800C0BCF1FF0F34DD8D
:1006F000546800202EE000F1080C4FF0010808FAC1
:100700000CF3B1F800C00CEA03069E4221D183002D
:100710004FF00F0C0CFA03F7BC4305FA03FC4CEA4C
:10072000040491F803C0BCF1280F05D100F1080CB6
:1007300008FA0CF8C2F8148091F803C0BCF1480F15
:1007400007D100F1080C4FF0010808FA0CF8C2F8C4
:100750001080401C0828CED35460BDE8F081416170
:1007600070470161704700BFFEE7000008B5012136
:10077000042000F073FAC020ADF8000014208DF8BA
:10078000030003208DF8020069460448FFF75CFF70
:10079000C0210248FFF7E5FF08BD0000000C014042
:1007A00070B504461248006820F070401049086097
:1007B0000846006840F04050086000200D4908607D
:1007C000002511E0042000F0C5FEE0090949091DDB
:1007D00008606006040E01200749C1F89801002056
:1007E00004490860681CC5B2082DEBDB70BD000031
:1007F000000C0140988121420080214210B50F4831
:10080000006820F070400D4908600846006840F01C
:100810004050086001200A4908600A49C1F898015F
:10082000022000F097FE002005490860022000F039
:1008300091FE00200349C1F8980110BD000C014051
:100840009C8121420080214210B50F48006820F0B1
:1008500070400D4908600846006840F0405008604C
:1008600000200A4908600A49C1F89801022000F0F6
:1008700071FE01200549091F08600549C1F89C0166
:10088000022000F067FE10BD000C01409C81214257
:100890000080214210B51248006820F070401049D5
:1008A00008600846006840F08040086001200D495B
:1008B00008600D49C1F8980107E0601CC4B2FA2C29
:1008C00003DDFFF7C1FF012010BD06488038006836
:1008D0000028F2D10349091F086000BFF4E70000B7
:1008E000000C01409C8121420080214208B5012179
:1008F000042000F0B3F90121082000F0AFF9142022
:100900008DF803000120ADF8000003208DF80200EF
:1009100069460D48FFF798FE14208DF803004FF448
:100920000040ADF8000003208DF80200694607483A
:10093000FFF78AFE01210448FFF713FF4FF400413F
:100940000248FFF70EFF08BD00080140000C0140FF
:1009500000BFFEE7704710B54FF4407000F03AF862
:1009600010BD000070B5002100230F22C47804B32D
:10097000154C246804F4E064C4F5E064210AC1F174
:100980000403CA40447804FA03F1847814402143F4
:1009900009010E4C0678A155047804F01F050124C6
:1009A000AC4005786D11AD0005F1E025C5F80041BA
:1009B00009E0047804F01F050124AC40044D0678DA
:1009C000761145F8264070BD0CED00E000E400E033
:1009D00080E100E002490143024A116070470000D3
:1009E0000000FA050CED00E070B5002418E00025C9
:1009F00004F0070141F0B00000F06FF8284600F065
:100A00006CF845F0100000F068F8002604E00020C3
:100A100000F081F8701CC6B2802EF8DB601CC4B2F6
:100A2000082CE4DB70BD10B5FFF7A0FEAE2000F08F
:100A300054F8002000F051F8102000F04EF840204B
:100A400000F04BF8812000F048F8CF2000F045F886
:100A5000A12000F042F8C82000F03FF8A62000F0E6
:100A60003CF8A82000F039F83F2000F036F8D320F9
:100A700000F033F8002000F030F8D52000F02DF819
:100A8000802000F02AF8D92000F027F8F12000F0AB
:100A900024F8DA2000F021F8122000F01EF8DB2004
:100AA00000F01BF8402000F018F8202000F015F8A6
:100AB000022000F012F88D2000F00FF8142000F052
:100AC0000CF8A42000F009F8A62000F006F8FFF7C3
:100AD0008BFFAF2000F001F810BD70B50546002473
:100AE000FFF78CFE7820FFF75BFEFFF7D3FE044391
:100AF0000020FFF755FEFFF7CDFE04432846FFF721
:100B00004FFEFFF7C7FE0443FFF79EFE0CB1002027
:100B100070BD0120FCE770B505460024FFF76EFEAE
:100B20007820FFF73DFEFFF7B5FE04434020FFF7B6
:100B300037FEFFF7AFFE04432846FFF731FEFFF70D
:100B4000A9FE0443FFF780FE0CB1002070BD012018
:100B5000FCE770B504460D4605F1B001C8B2FFF7D9
:100B6000BCFF102141EA1410FFF7B7FF04F00F009B
:100B7000FFF7B3FF70BD00002DE9F04107460E46B8
:100B8000154631463846FFF7E4FF002407E00F49D9
:100B900001EB4511085DFFF7BEFF601CC4B2102CCD
:100BA000F5DB701CC1B23846FFF7D3FF002409E023
:100BB000064901EB451204F11001505CFFF7ABFF51
:100BC000601CC4B2102CF3DBBDE8F081DB18000818
:100BD0002DE9F04106460F46154639463046FFF7E7
:100BE000B8FF00240BE0A5F1200101EB4101064A0A
:100BF00002EB4101085DFFF78EFF601CC4B2062CBA
:100C0000F1DBBDE8F08100009B1600082DE9F04102
:100C100004460F46154600260EE0AA5D39462046DA
:100C2000FFF7D6FFA01DC4B2A01D7F2802DD00245F
:100C3000781CC7B2701CC6B2A85D0028EDD1BDE813
:100C4000F081704701460020034A506820F440407C
:100C500008435060704700000010024029B1064A66
:100C600092690243044B9A6104E0034A9269824309
:100C7000014B9A6170470000001002400F48006865
:100C800040F001000D490860084640680C490840E2
:100C90000A494860084600680A4908400749086050
:100CA0000846006820F4802008600846406820F468
:100CB000FE0048604FF41F0088607047001002403B
:100CC0000000FFF8FFFFF6FE30B5002100220024EF
:100CD00000232D4D6D6805F00C0121B1042905D0CC
:100CE000082923D105E0294D056022E0274D056044
:100CF0001FE0254D6D6805F47012234D6D6805F4F5
:100D00008034022505EB92421CB9214D5543056004
:100D10000BE01D4D6D6805F400351DB11C4D5543AC
:100D2000056002E0194D5543056002E0174D05606E
:100D300000BF00BF144D6D6805F0F0010909154DA5
:100D40006B5C0568DD4045600F4D6D6805F4E06142
:100D5000090A104D6B5C4568DD4085600A4D6D6881
:100D600005F46051C90A0B4D6B5C4568DD40C560F8
:100D7000054D6D6805F44041890B074D6B5CC568F6
:100D8000B5FBF3F5056130BD0010024000127A009A
:100D900000093D001E0000202E00002010B5014675
:100DA0000022002300204A11012A02D1094C2368A5
:100DB00006E0022A02D1074C236A01E0054C636A6F
:100DC00001F01F02012494401C400CB1012000E0FE
:100DD000002010BD001002400248406800F00C00E6
:100DE000704700000010024001460020034A50688E
:100DF00020F0F000084350607047000000100240EF
:100E0000014908607047000000004242014600208E
:100E1000034A506820F4E0600843506070470000C7
:100E20000010024001460020034A506820F4605040
:100E300040EAC10050607047001002400149086656
:100E4000704700000000424202460020044B5868F0
:100E500020F47C1042EA01031843014B58607047AC
:100E60000010024001460020034A506820F00300B1
:100E700008435060704700000010024000B587B082
:100E800001210420FFF7EAFE01210803FFF7E6FE37
:100E9000E020ADF8180018208DF81B0003208DF815
:100EA0001A0006A91748FFF7CFFBE0211548FFF706
:100EB00058FC0020ADF804004FF48270ADF8060035
:100EC0000020ADF808000220ADF80A000120ADF8BE
:100ED0000C004002ADF80E003820ADF810000020E4
:100EE000ADF812000720ADF8140001A9064800F083
:100EF00065F80121044800F047F8FF2000F006F8EB
:100F000007B000BD000801400030014070B5054643
:100F1000002405E0601CC4B2C82C01DD002070BDB7
:100F200002210E4800F03CF80028F3D029460B4877
:100F300000F042F8002405E0601CC4B2C82C01DDBA
:100F40000020ECE70121054800F02AF80028F3D042
:100F5000024800F02EF8C0B2E1E700000030014086
:100F600010B50446074800884FF6C7710840054988
:100F7000088008460088204308800121014800F0CD
:100F800003F810BD0030014021B1028842F0400258
:100F9000028004E002884FF6BF731A400280704757
:100FA0000246002013890B400BB1012000E0002015
:100FB00070470146888970478181704710B50022CB
:100FC000028802F441520B884C8823438C882343C7
:100FD000CC8823430C8923434C8923438C892343A6
:100FE000CC8923431A430280838B4FF2FF74234042
:100FF00083830B8A038210BD7047042808D14FF009
:10100000E021096941F004014FF0E022116107E09D
:101010004FF0E021096921F004014FF0E022116155
:101020007047704708B501210420FFF717FE102014
:101030008DF80300ADF8000003208DF8020069462A
:101040000C48FFF701FB10208DF803000820ADF8D5
:10105000000003208DF8020069460648FFF7F4FA05
:10106000FFF70CFF1820FFF77BFF012000F004F8CA
:1010700008BD00000008014010B50446012C07D14E
:1010800008210648FFF76DFBC82000F03DFA03E099
:1010900008210248FFF763FB10BD00000008014073
:1010A0002DE9F0410746002500260024A046102126
:1010B0001A48FFF754FB23E00420FFF727FF002521
:1010C00007E0FF20FFF722FF05EB86017854681C3C
:1010D000C5B2042DF5DBFF20FFF718FF044604F02E
:1010E000800010B10020BDE8F081002C05DD08EB88
:1010F000040000F0FF08701CC6B2202C00D000E0F5
:10110000DAE700BF10210548FFF72BFB08F10701C4
:10111000C81701EB5070C0F3C700E4E700080140B6
:1011200070B5044610210948FFF719FB0320FFF7AB
:10113000EDFE2046FFF7EAFEFF20FFF7E7FE05463B
:1011400010210248FFF70DFB284670BD0008014042
:1011500010B500240AE0074A02EB44025178054A20
:1011600012F8140000F008F8601CC4B21B2CF2DB6B
:1011700010BD00006516000870B505460C4610212C
:101180000848FFF7ECFA0220FFF7C0FE2846FFF7F9
:10119000BDFE2046FFF7BAFE10210248FFF7E1FA34
:1011A00070BD00000008014010B540F225511948FB
:1011B00000F0B7F860B3174800F06EF9C4B22046EB
:1011C00000F086F80D2C0FD01348144909884454B8
:1011D00012490988481CC11700EB5161C911A0EBE5
:1011E000C1110E4A118013E000210C4A1088C21769
:1011F00000EB5262D211A0EBC212074B9954074880
:10120000008840F48070054908800A2000F060F8EA
:1012100010BD000000380140340000201C000020F8
:1012200010B586B0044601210420FFF717FD012107
:101230008803FFF713FD18208DF817004FF4007096
:10124000ADF8140003208DF8160005A91E48FFF71D
:10125000FBF904208DF817000002ADF814000320FC
:101260008DF8160005A91848FFF7EEF90194002043
:10127000ADF810000C20ADF80E000020ADF80C0009
:10128000ADF80A00ADF8080001A9104800F098F880
:1012900025208DF800000F208DF8010000208DF82A
:1012A000020001208DF803006846FFF75BFB012276
:1012B00040F22551054800F05EF80121034800F096
:1012C00017F806B010BD00000008014000380140CA
:1012D00010B5044600BF4021044800F015F800286E
:1012E000F9D02146014800F0DCF810BD003801407B
:1012F00021B1828942F40052828104E082894DF654
:10130000FF731A408281704702460020B1F5007FCA
:1013100000D100BF13880B400BB1012000E000207A
:10132000704770B50246002400230025002040F6D7
:101330006A16B14200D100BFC1F3421501F01F038C
:10134000012606FA03F3012D02D19689334006E007
:10135000022D02D1168A334001E0968A33400C12E6
:10136000012606FA04F41688344013B10CB10120AA
:1013700000E0002070BDF0B50346002400260025E3
:10138000002040F66A17B94200D100BF1846C1F3E9
:10139000421401F01F06012707FA06F5012C01D1BE
:1013A0000C3004E0022C01D1103000E014301AB1EE
:1013B00007682F43076002E00768AF430760F0BD8E
:1013C0002DE9F04786B005460E460024A24600BF30
:1013D000A1460027B08900B100BF2F462C8A4CF6E9
:1013E000FF700440F08804432C82AC894EF6F31061
:1013F0000440B08831890843718908430443AC81B3
:10140000AC8A4FF6FF400440B0890443AC8201A887
:10141000FFF75AFC1F48874202D1DDF810A001E017
:10142000DDF80CA0A88900F4004040B10AEBCA0026
:1014300000EB0A1031684900B0FBF1F807E00AEB55
:10144000CA0000EB0A1031688900B0FBF1F8642093
:10145000B8FBF0F004012009642101FB1089A88980
:1014600000F4004040B1322000EBC900B0FBF1F0C5
:1014700000F00700044308E0322000EB091064216B
:10148000B0FBF1F000F00F0004432C8106B0BDE882
:10149000F08700000038014001468888C0F308004A
:1014A0007047C1F308028280704700BFFEE7303802
:1014B0000A2801D20120704700207047014600BF72
:1014C0007047000010B56FF00400FFF796FD0A4862
:1014D00000680A49B0FBF1F0094908700846007835
:1014E00000EB4001C1EBC0104FF6FF7101EAC000F4
:1014F0000449088010BD00000400002000127A009A
:1015000000000020020000200146114A12884A43D0
:101510004FF0E0235A6100229A611A46126942F0A4
:1015200001021A6100BF4FF0E022106900F00102D1
:101530001AB100F48032002AF5D04FF0E02212698F
:1015400022F001024FF0E0231A6100229A617047F5
:10155000020000200146114A12784A434FF0E0236E
:101560005A6100229A611A46126942F001021A6118
:1015700000BF4FF0E022106900F001021AB100F440
:101580008032002AF5D04FF0E022126922F00102E9
:101590004FF0E0231A6100229A617047000000209A
:1015A00070B504460D4600BF40210548FFF7ACFE6C
:1015B0000028F9D0E1B20248FFF773FF204670BD62
:1015C0000038014088B0FEF7BDFFFFF7C4F9FFF710
:1015D00079FF4FF4E130FFF723FEFFF787F9FFF7BC
:1015E00022FAFEF7F9FFFEF7E5FFFFF701F8FFF734
:1015F00019FDFFF7ADFD1FE00025A820FFF790FDC6
:1016000000F00800A0B16846FFF74AFD05460BA0B0
:10161000FEF7DCFD002406E01DF804100EA0FEF726
:10162000D5FD601CC4B2AC42F6DB0DA0FEF7CEFDCA
:101630003220FFF769FF00BFDEE7000052656365F7
:1016400069766520446174612046726F6D20535045
:1016500033373A2000000000253032582C2000009B
:101660000D0A00001BA6008000241727012D502F13
:101670005039103A093B2A3D023E033F05400541DF
:1016800071427D4408453748024C754E10516652F0
:1016900056565858155AF29402A60200000000004F
:1016A000000000BE000000000600060000147F14C9
:1016B0007F1400004C7A4F32000066166866000006
:1016C000384F4D320000000003000000003E410092
:1016D000000000413E0000001C3E1C000000083ECF
:1016E0000800000000006000000008080808000072
:1016F00000400000000040300C0300003E41413E2D
:101700000000427F4000000062514946000022492B
:101710004936000038267F2000004F49493100003B
:101720003E49493200000371090700003649493635
:1017300000002649493E000000240000000040242B
:1017400000000000081422410000141414140000CA
:101750004122140800000251090600000E71497E62
:1017600000007E11117E00007F49493600003E4195
:10177000412200007F41413E00007F494941000075
:101780007F09090100003E41493A00007F08087FB7
:101790000000417F410000003040403F00007F08D2
:1017A000146300007F40404000007F06067F000079
:1017B0007F06187F00007F41417F00007F090906F6
:1017C00000003E51617E00007F1929460000264935
:1017D00049320000017F010100003F40403F00000E
:1017E0000F70700F00007F30307F0000631C1C639F
:1017F000000304780403000061594D430000007F9A
:10180000410000030C304000000000417F00000058
:1018100002010200000040404040000000030000C0
:1018200000002058587800007F48483000003048B9
:10183000484800003048487F0000305858100000E9
:10184000087C0A08000010A8A87800007F0878002B
:1018500000000074000000008080740000007F1011
:1018600028480000407F4000000078087878000099
:10187000780808700000304848300000F8484830C8
:101880000000304848F80000781008080000505860
:1018900068280000087C48000000384040780000BC
:1018A0001860601800186038601800004830304830
:1018B000000018A0A0780000486858480000087789
:1018C00041000000007F0000000041770800000098
:1018D0000201020100013C42424200C0E0380C0417
:1018E0002622020202060418F0000000071C302025
:1018F0002060404040602020110F060000F01804D6
:10190000060202022226040C38E0C0060F11202035
:1019100060404040602020301C07003031323334BA
:101920003536373839414243444546403058003017
:101930003132333435363738396162636465664035
:1019400030780004000008000000000000000200E1
:10195000010000107419000800000020340000008D
:1019600028010008A819000834000020E40600003F
:1019700044010008000000000090D00300000000B7
:10198000000000000102030406070809000000002F
:101990000000000000000102030401020304060726
:0819A00008090204060800001A
:04000005080000ED02
:00000001FF
