:020000040800F2
:100000006007002089010008E3080008FD040008DB
:10001000DF08000831020008031700080000000094
:10002000000000000000000000000000050F0008B4
:10003000DB02000800000000F90B00082F0F000889
:100040009F0100089F0100089F0100089F01000810
:100050009F0100089F010008350300089F01000868
:100060009F0100089F0100089F0100089F010008F0
:100070009F0100089F0100089F0100089F010008E0
:100080009F0100089F0100089F0100089F010008D0
:100090009F0100089F0100089F0100089F010008C0
:1000A0009F0100089F0100089F0100089F010008B0
:1000B0009F010008C50F00089F0100089F0100086C
:1000C0009F0100089F0100089F0100089F01000890
:1000D0009F010008011400089F0100089F0100080B
:1000E0009F0100089F0100089F01000800F002F82E
:1000F00000F03AF80AA090E8000C82448344AAF188
:100100000107DA4501D100F02FF8AFF2090EBAE885
:100110000F0013F0010F18BFFB1A43F0010318473B
:10012000141A0000341A0000103A24BF78C878C1AD
:10013000FAD8520724BF30C830C144BF04680C60ED
:10014000704700000023002400250026103A28BF35
:1001500078C1FBD8520728BF30C148BF0B60704739
:100160001FB51FBD10B510BD00F02FF81146FFF7E9
:10017000F7FF01F039FB00F04DF803B4FFF7F2FF91
:1001800003BC01F0C0FA000008480047FEE7FEE7A4
:10019000FEE7FEE7FEE7FEE7FEE7FEE7FEE7FEE737
:1001A00003480449044A054B70470000ED0000086D
:1001B0006001002060070020600300206003002031
:1001C00070477047704770477047754600F02CF8CD
:1001D000AE4605006946534620F00700854618B034
:1001E00020B5FFF7DDFFBDE820404FF000064FF0DF
:1001F00000074FF000084FF0000B21F00701AC465C
:10020000ACE8C009ACE8C009ACE8C009ACE8C0097A
:100210008D46704710B50446AFF300802046BDE818
:100220001040FFF7AABF000000487047FC00002004
:1002300000BFFEE730B502460B46AA20002113E0BE
:10024000555C684000240BE000F0800525B14506B0
:10025000280E80F02F0001E04506280E651CECB248
:10026000082CF1DB4D1CE9B29942E9DB30BD10B539
:1002700000F010FD012000F0CFFD00BF212000F0B4
:1002800099FD0028FAD0022000F094F8102000F028
:1002900083F84FF46011002000F0E2FD012000F02F
:1002A000D9FD00BF392000F085FD0128FAD10220D8
:1002B00000F0E4FD00BF00F09BFD0828FBD100200A
:1002C00000F09EFD4FF4806000F0ACFD002000F0D7
:1002D000B5FD002000F092FC10BD704710B503A2E0
:1002E0000121132000F05CFC10BD00007777772E11
:1002F0007869616F6A696A696A692E636F6D000067
:1003000010B500221146104600F000FC10BD0000A0
:1003100010B503A20021132000F042FC10BD000024
:10032000202E53656E64203132354B687A204C465E
:100330002E20000010B513480078F0B9002404E026
:10034000002011490855601CC4B2402CF8DB0E484F
:1003500000F0EEFD0B490870084600780D2801DA20
:10036000002008700D210848FFF764FF0649497B0B
:10037000884202D0002003490870012000F006F8EE
:1003800010BD0000180000203C000020014908605A
:1003900070470000140401400549096821F010016C
:1003A000034A11601146096801431160704700005B
:1003B0000020024001460020034A106800F0380087
:1003C0000843106070470000002002402DE9F04112
:1003D000024600250026002000230024002791F873
:1003E00003C00CF00F0591F803C00CF0100CBCF129
:1003F000000F03D091F802C04CEA050591F800C047
:10040000BCF1000F31D0146800202BE04FF0010C3C
:100410000CFA00F3B1F800C00CEA03069E4220D1AA
:1004200083004FF00F0C0CFA03F7BC4305FA03FCF2
:100430004CEA040491F803C0BCF1280F06D14FF038
:10044000010C0CFA00FCC2F814C00AE091F803C0D9
:10045000BCF1480F05D14FF0010C0CFA00FCC2F8BA
:1004600010C0401C0828D1D31460B1F800C0BCF102
:10047000FF0F34DD546800202EE000F1080C4FF02F
:10048000010808FA0CF3B1F800C00CEA03069E421A
:1004900021D183004FF00F0C0CFA03F7BC4305FA8F
:1004A00003FC4CEA040491F803C0BCF1280F05D109
:1004B00000F1080C08FA0CF8C2F8148091F803C097
:1004C000BCF1480F07D100F1080C4FF0010808FA01
:1004D0000CF8C2F81080401C0828CED35460BDE848
:1004E000F08102460020D3680B400BB1012000E0F0
:1004F00000207047416170470161704700BFFEE70F
:1005000008B50121042000F0A5FBC020ADF80000D3
:1005100014208DF8030003208DF80200694604487A
:10052000FFF754FFC0210248FFF7E6FF08BD0000B7
:10053000000C014070B504461248006820F070407D
:10054000104908600846006840F0405008600020EC
:100550000D490860002511E0042001F01FF9E009B1
:100560000949091D08606006040E01200749C1F809
:100570009801002004490860681CC5B2082DEBDB17
:1005800070BD0000000C0140988121420080214292
:1005900010B50F48006820F070400D49086008460B
:1005A000006840F04050086001200A4908600A498C
:1005B000C1F89801022001F0F1F800200549086017
:1005C000022001F0EBF800200349C1F8980110BDAA
:1005D000000C01409C8121420080214210B50F484F
:1005E000006820F070400D4908600846006840F03F
:1005F0004050086000200A4908600A49C1F8980183
:10060000022001F0CBF801200549091F08600549C7
:10061000C1F89C01022001F0C1F810BD000C01409E
:100620009C8121420080214210B51248006820F0D0
:100630007040104908600846006840F0804008603B
:1006400001200D4908600D49C1F8980107E0601CC0
:10065000C4B2FA2C03DDFFF7C1FF012010BD06482C
:10066000803800680028F2D10349091F086000BFE4
:10067000F4E70000000C01409C81214200802142EF
:1006800008B50121042000F0E5FA0121082000F05E
:10069000E1FA14208DF803000120ADF800000320DA
:1006A0008DF8020069460D48FFF790FE14208DF882
:1006B00003004FF40040ADF8000003208DF8020065
:1006C00069460748FFF782FE01210448FFF714FF3F
:1006D0004FF400410248FFF70FFF08BD000801403A
:1006E000000C014010B501210748FFF7FAFE04464F
:1006F000012C04D101210448FFF7FCFE03E0012195
:100700000148FFF7F9FE10BD0008014000B589B0AF
:100710000121042000F07EFA0121082000F09AFA5D
:1007200018208DF823004FF40070ADF8200003204E
:100730008DF8220008A91A48FFF748FE194800F072
:100740007FFC0020ADF81A00ADF8160040F2FF1053
:10075000ADF818000020ADF8140005A9114800F00C
:10076000CBFD01210F4800F04DFC6020ADF80400E6
:100770000020ADF80C000120ADF806000020ADF817
:100780000A0001A9074800F069FD0821054800F0AA
:10079000A3FD0121034800F047FC09B000BD0000A3
:1007A000000C0140000800402DE9F04107460D46CD
:1007B000164600F056F800F05AF81021384600F0BE
:1007C00021F8002405E0285D082100F01BF8601CDA
:1007D000C4B2B442F7DB002000F0FEF9BDE8F081BE
:1007E00010B50446012C06D1002000F026F80120A7
:1007F00000F023F805E0012000F01FF8002000F0D1
:100800001CF810BD70B504460D46002612E0681EA7
:10081000012101FA00F0204018B10120FFF7E0FFAC
:1008200002E00020FFF7DCFF4FF6FF7000EA44040F
:10083000701CC6B2AE42EADB70BD10B50446012C96
:1008400005D100F0C9F9802000F0A8FF05E00020E4
:1008500000F0C2F9802000F0A1FF002000F0BCF9F8
:1008600010BD10B510210020FFF7CCFF10BD10B552
:100870000120FFF7E2FF0120FFF7DFFF0120FFF774
:10088000DCFF0020FFF7D9FF0020FFF7D6FF002094
:10089000FFF7D3FF0120FFF7D0FF0020FFF7CDFFC8
:1008A0000120FFF7CAFF0120FFF7C7FF0020FFF775
:1008B000C4FF0020FFF7C1FF0120FFF7BEFF0120AA
:1008C000FFF7BBFF0020FFF7B8FF0020FFF7B5FFE1
:1008D0000120FFF7B2FF0020FFF7AFFF10BD00BF00
:1008E000FEE7704710B54FF4407000F039F810BDC6
:1008F00070B5002100230F22C47804B3154C24687E
:1009000004F4E064C4F5E064210AC1F10403CA40C0
:10091000447804FA03F184781440214309010E4C11
:100920000678A155047804F01F050124AC40057831
:100930006D11AD0005F1E025C5F8004109E004782E
:1009400004F01F050124AC40044D0678761145F8EB
:10095000264070BD0CED00E000E400E080E100E026
:1009600002490143024A1160704700000000FA0585
:100970000CED00E070B5002418E0002504F007013C
:1009800041F0B00000F073F8284600F070F845F030
:10099000100000F06CF8002604E0002000F085F85C
:1009A000701CC6B2802EF8DB601CC4B2082CE4DBDD
:1009B00070BD10B5FFF7A4FD4FF4967000F0C8FEAF
:1009C000AE2000F054F8002000F051F8102000F0A4
:1009D0004EF8402000F04BF8812000F048F8CF207E
:1009E00000F045F8A12000F042F8C82000F03FF8E0
:1009F000A62000F03CF8A82000F039F83F2000F0D5
:100A000036F8D32000F033F8002000F030F8D5207D
:100A100000F02DF8802000F02AF8D92000F027F807
:100A2000F12000F024F8DA2000F021F8122000F084
:100A30001EF8DB2000F01BF8402000F018F8202002
:100A400000F015F8022000F012F88D2000F00FF8E9
:100A5000142000F00CF8A42000F009F8A62000F003
:100A600006F8FFF787FFAF2000F001F810BD70B562
:100A700005460024FFF78CFD7820FFF75BFDFFF7AC
:100A8000D3FD04430020FFF755FDFFF7CDFD0443E0
:100A90002846FFF74FFDFFF7C7FD0443FFF79EFD14
:100AA0000CB1002070BD0120FCE770B505460024A4
:100AB000FFF76EFD7820FFF73DFDFFF7B5FD04431E
:100AC0004020FFF737FDFFF7AFFD04432846FFF74F
:100AD00031FDFFF7A9FD0443FFF780FD0CB10020B5
:100AE00070BD0120FCE770B504460D4605F1B0016C
:100AF000C8B2FFF7BCFF102141EA1410FFF7B7FF9F
:100B000004F00F00FFF7B3FF70BD00002DE9F041C6
:100B100007460E46154631463846FFF7E4FF0024E7
:100B200007E00F4901EB4511085DFFF7BEFF601CB0
:100B3000C4B2102CF5DB701CC1B23846FFF7D3FFEE
:100B4000002409E0064901EB451204F11001505C54
:100B5000FFF7ABFF601CC4B2102CF3DBBDE8F081E3
:100B6000F41A00082DE9F04106460F4615463946AD
:100B70003046FFF7B8FF00240BE0A5F1200101EBA0
:100B80004101064A02EB4101085DFFF78EFF601C40
:100B9000C4B2062CF1DBBDE8F0810000B4180008F7
:100BA0002DE9F04104460F46154600260EE0AA5DE9
:100BB00039462046FFF7D6FFA01DC4B2A01D7F28EE
:100BC00002DD0024781CC7B2701CC6B2A85D0028E4
:100BD000EDD1BDE8F081000010B50446012C04D130
:100BE0000102044800F085FB03E00021014800F009
:100BF00080FB10BD00080040704700000146002047
:100C0000034A506820F44040084350607047000099
:100C10000010024029B1064AD2690243044BDA614E
:100C200004E0034AD2698243014BDA617047000055
:100C30000010024029B1064A12690243044B1A61AE
:100C400004E0034A12698243014B1A6170470000B5
:100C50000010024029B1064A92690243044B9A618E
:100C600004E0034A92698243014B9A617047000095
:100C70000010024029B1064AD2680243044BDA60F0
:100C800004E0034AD2688243014BDA6070470000F7
:100C9000001002400F48006840F001000D49086054
:100CA000084640680C4908400A4948600846006800
:100CB0000A490840074908600846006820F4802077
:100CC00008600846406820F4FE0048604FF41F00AA
:100CD00088607047001002400000FFF8FFFFF6FE3A
:100CE00030B500210022002400232D4D6D6805F051
:100CF0000C0121B1042905D0082923D105E0294D93
:100D0000056022E0274D05601FE0254D6D6805F464
:100D10007012234D6D6805F48034022505EB924274
:100D20001CB9214D554305600BE01D4D6D6805F460
:100D300000351DB11C4D5543056002E0194D55436A
:100D4000056002E0174D056000BF00BF144D6D68DF
:100D500005F0F0010909154D6B5C0568DD40456043
:100D60000F4D6D6805F4E061090A104D6B5C456834
:100D7000DD4085600A4D6D6805F46051C90A0B4D70
:100D80006B5C4568DD40C560054D6D6805F440410C
:100D9000890B074D6B5CC568B5FBF3F5056130BD8C
:100DA0000010024000127A0000093D0026000020D9
:100DB0003600002010B501460022002300204A1111
:100DC000012A02D1094C236806E0022A02D1074C0D
:100DD000236A01E0054C636A01F01F02012494407C
:100DE0001C400CB1012000E0002010BD00100240AA
:100DF0000248406800F00C007047000000100240FC
:100E000001460020034A506820F0F000084350607B
:100E10007047000000100240014908607047000060
:100E20000000424201460020034A506820F4E0607E
:100E30000843506070470000001002400146002047
:100E4000034A506820F4605040EAC1005060704787
:100E5000001002400149086670470000000042424D
:100E600002460020044B586820F47C1042EA01033B
:100E70001843014B586070470010024001460020A3
:100E8000034A506820F00300084350607047000098
:100E90000010024070B50546002405E0601CC4B295
:100EA000C82C01DD002070BD02210E4800F01CF8A6
:100EB0000028F3D029460B4800F022F8002405E072
:100EC000601CC4B2C82C01DD0020ECE701210548FC
:100ED00000F00AF80028F3D0024800F00EF8C0B283
:100EE000E1E70000003001400246002013890B407A
:100EF0000BB1012000E0002070470146888970474F
:100F0000818170477047042808D14FF0E0210969BA
:100F100041F004014FF0E022116107E04FF0E021C1
:100F2000096921F004014FF0E02211617047704718
:100F30002DE9F0410746002500260024A046102197
:100F40001A48FFF7D7FA23E00420FFF7A3FF002594
:100F500007E0FF20FFF79EFF05EB86017854681C31
:100F6000C5B2042DF5DBFF20FFF794FF044604F023
:100F7000800010B10020BDE8F081002C05DD08EBF9
:100F8000040000F0FF08701CC6B2202C00D000E066
:100F9000DAE700BF10210548FFF7AEFA08F10701B4
:100FA000C81701EB5070C0F3C700E4E70008014028
:100FB00010B504462146024800F036F810BD000086
:100FC0000004004010B501210C4800F02DF940B19B
:100FD00001210A4800F025F809480068401C08492A
:100FE0000860074800684FF4FA71B0FBF1F201FBAA
:100FF000120008B9FFF776FB10BD000000040040A6
:101000001C00002021B1028842F08002028004E02E
:1010100002884FF67F731A4002807047CA430282EB
:101020007047CA430282704721B1028842F0010230
:10103000028004E002884FF6FE731A400280704777
:1010400010B504466848844208D10121C014FFF756
:1010500011FE0021E014FFF70DFEC4E0B4F1804F53
:1010600008D101210846FFF7E5FD00210120FFF727
:10107000E1FDB8E05D48844208D101210220FFF77C
:10108000D9FD00210220FFF7D5FDACE0584884428D
:1010900008D101210420FFF7CDFD00210420FFF736
:1010A000C9FDA0E05348844208D101210820FFF780
:1010B000C1FD00210820FFF7BDFD94E04E488442A9
:1010C00008D101211020FFF7B5FD00211020FFF706
:1010D000B1FD88E04948844208D101212020FFF772
:1010E000A9FD00212020FFF7A5FD7CE044488442B3
:1010F00008D101214014FFF7BDFD00216014FFF766
:10110000B9FD70E03F48844209D10121C804FFF7CE
:10111000B1FD00214FF40020FFF7ACFD63E03A4839
:10112000844209D101210805FFF7A4FD00214FF4F5
:101130008010FFF79FFD56E03448844209D1012119
:101140004805FFF797FD00214FF40010FFF792FDCF
:1011500049E02F48844208D101214020FFF76AFD71
:1011600000214020FFF766FD3DE02A48844208D177
:1011700001218020FFF75EFD00218020FFF75AFD4E
:1011800031E02548844208D101218015FFF752FD46
:101190000021A015FFF74EFD25E02048844209D12B
:1011A00001210804FFF766FD00214FF48030FFF7AE
:1011B00061FD18E01A48844209D101214804FFF773
:1011C00059FD00214FF40030FFF754FD0BE01548A6
:1011D000844208D101218804FFF74CFD00214FF41F
:1011E0008020FFF747FD10BD002C014000040040A7
:1011F00000080040000C00400010004000140040B7
:1012000000340140004C01400050014000540140B6
:1012100000180040001C0040002000400040014039
:10122000004401400048014030B502460020002340
:101230000024158A05EA0103958905EA010413B122
:101240000CB1012000E0002030BD1AB183890B43AE
:10125000838102E083898B438381704770B50022CC
:1012600000230024058C4EF6FF7635400584038C60
:101270008488828B48F6FF752A404FF6FF452A4046
:101280000D884FF6FF7606EA05252A434DF6FF75D1
:101290002B400D8906EA05352B434D8806EA0535B6
:1012A0002B430B4DA84202D00A4DA84208D14BF661
:1012B000FF752C408D894FF6FF7606EA85152C4385
:1012C00084808283CD88A0F84050038470BD0000E4
:1012D000002C0140003401400A460021818B4FF26E
:1012E000FF7319404FF6FF7303EA0223194381830A
:1012F0007047A0F840107047002202881D4B9842AA
:101300000ED01D4B98420BD0B0F1804F08D01B4B34
:10131000984205D01A4B984202D01A4B984204D1F9
:101320004FF68F731A404B881A43174B984207D0D9
:10133000164B984204D04FF6FF431A40CB881A430D
:1013400002808B8883850B8803850A4B98420BD0DB
:10135000094B984208D00E4B984205D00D4B98424D
:1013600002D00D4B984201D10B7A03860123838270
:1013700070470000002C0140003401400004004090
:1013800000080040000C0040001000400014004025
:101390000040014000440140004801407FB5044640
:1013A0000D4601210220FFF735FC0020ADF80A00B0
:1013B000ADF80600ADF80840681E80B2ADF8040034
:1013C00001A90E48FFF798FF1D208DF800000120AD
:1013D0008DF803000E208DF8010000208DF802002A
:1013E0006846FFF785FA01210448FFF717FE01223E
:1013F00011460248FFF729FF7FBD000000040040AE
:1014000010B540F22551194800F0B7F860B31748FD
:1014100000F06EF9C4B2204600F086F80D2C0FD013
:10142000134814490988445412490988481CC117B3
:1014300000EB5161C911A0EBC1110E4A118013E0FC
:1014400000210C4A1088C21700EB5262D211A0EBA7
:10145000C212074B99540748008840F48070054930
:1014600008800A2000F060F810BD0000003801403C
:101470007C0000202400002010B586B00446012125
:101480000420FFF7E7FB01218803FFF7E3FB1820A7
:101490008DF817004FF40070ADF8140003208DF89C
:1014A000160005A91E48FEF791FF04208DF81700CD
:1014B0000002ADF8140003208DF8160005A91848A5
:1014C000FEF784FF01940020ADF810000C20ADF869
:1014D0000E000020ADF80C00ADF80A00ADF80800D1
:1014E00001A9104800F098F825208DF800000F2081
:1014F0008DF8010000208DF8020001208DF8030016
:101500006846FFF7F5F9012240F22551054800F041
:101510005EF80121034800F017F806B010BD000086
:10152000000801400038014010B5044600BF4021CA
:10153000044800F015F80028F9D02146014800F0D1
:10154000DCF810BD0038014021B1828942F400521C
:10155000828104E082894DF6FF731A4082817047D0
:1015600002460020B1F5007F00D100BF13880B4078
:101570000BB1012000E00020704770B50246002446
:1015800000230025002040F66A16B14200D100BFBA
:10159000C1F3421501F01F03012606FA03F3012DE2
:1015A00002D19689334006E0022D02D1168A3340DB
:1015B00001E0968A33400C12012606FA04F41688DC
:1015C000344013B10CB1012000E0002070BDF0B533
:1015D0000346002400260025002040F66A17B94281
:1015E00000D100BF1846C1F3421401F01F060127C5
:1015F00007FA06F5012C01D10C3004E0022C01D1D0
:10160000103000E014301AB107682F43076002E081
:101610000768AF430760F0BD2DE9F04786B0054687
:101620000E460024A24600BFA1460027B08900B1A3
:1016300000BF2F462C8A4CF6FF700440F08804430C
:101640002C82AC894EF6F3100440B08831890843EF
:10165000718908430443AC81AC8A4FF6FF400440D3
:10166000B0890443AC8201A8FFF73AFB1F488742C8
:1016700002D1DDF810A001E0DDF80CA0A88900F48B
:10168000004040B10AEBCA0000EB0A103168490083
:10169000B0FBF1F807E00AEBCA0000EB0A10316872
:1016A0008900B0FBF1F86420B8FBF0F004012009D8
:1016B000642101FB1089A88900F4004040B1322068
:1016C00000EBC900B0FBF1F000F00700044308E0B4
:1016D000322000EB09106421B0FBF1F000F00F00A4
:1016E00004432C8106B0BDE8F087000000380140BB
:1016F00001468888C0F308007047C1F30802828061
:10170000704700BFFEE7014600BF704710B56FF09D
:101710000400FFF7F8FB0A4800680A49B0FBF1F043
:10172000094908700846007800EB4001C1EBC01081
:101730004FF6FF7101EAC0000449088010BD0000A7
:101740000400002000127A000000002002000020A7
:101750000146114A12884A434FF0E0235A610022A1
:101760009A611A46126942F001021A6100BF4FF0F5
:10177000E022106900F001021AB100F48032002A60
:10178000F5D04FF0E022126922F001024FF0E02381
:101790001A6100229A617047020000200146114A36
:1017A00012784A434FF0E0235A6100229A611A46A8
:1017B000126942F001021A6100BF4FF0E022106985
:1017C00000F001021AB100F48032002AF5D04FF087
:1017D000E022126922F001024FF0E0231A61002298
:1017E0009A617047000000201CB5FEF740FDFFF72E
:1017F00079F8FFF78BFFFEF743FF4FF4E130FFF777
:101800003BFE40214FF47A70FFF7C8FD0120FFF73F
:10181000CFFBFEF77BFFFFF7CCF8FEF771FDFEF77D
:101820005DFDFEF775FD012202210020FFF76EF934
:10183000002202216E20FFF769F901220621002013
:10184000FFF764F9002206216E20FFF75FF90DA271
:1018500004210620FFF7A4F90FA205210620FFF7B7
:101860009FF90EE041F2342410A103C9CDE9000133
:10187000082269462046FEF797FF6420FFF768FFBD
:1018800000BFEFE753656E64203132354B687A2034
:101890004C46205445535400202020202049443AEF
:1018A00030783132333420202020000000112233E0
:1018B000445566770000000000000000BE000000F4
:1018C000000600060000147F147F1400004C7A4FBD
:1018D000320000661668660000384F4D3200000086
:1018E0000003000000003E4100000000413E0000F7
:1018F000001C3E1C000000083E08000000000060C4
:101900000000000808080800000040000000004037
:10191000300C0300003E41413E0000427F40000089
:101920000062514946000022494936000038267FAE
:101930002000004F49493100003E49493200000370
:1019400071090700003649493600002649493E0022
:1019500000002400000000402400000000081422C1
:101960004100001414141400004122140800000265
:1019700051090600000E71497E00007E11117E00A3
:10198000007F49493600003E41412200007F41412D
:101990003E00007F49494100007F09090100003EE7
:1019A00041493A00007F08087F0000417F41000064
:1019B000003040403F00007F08146300007F40403B
:1019C0004000007F06067F00007F06187F00007F32
:1019D00041417F00007F09090600003E51617E0001
:1019E000007F1929460000264949320000017F0185
:1019F0000100003F40403F00000F70700F00007F6B
:101A000030307F0000631C1C630003047804030073
:101A10000061594D430000007F410000030C30403D
:101A200000000000417F00000002010200000040B1
:101A3000404040000000030000000020585878009B
:101A4000007F48483000003048484800003048488F
:101A50007F0000305858100000087C0A0800001071
:101A6000A8A87800007F087800000000740000003B
:101A7000008080740000007F1028480000407F40F4
:101A800000000078087878000078080870000030BE
:101A90004848300000F84848300000304848F80016
:101AA00000781008080000505868280000087C489A
:101AB000000000384040780000186060180018608E
:101AC000386018000048303048000018A0A07800A6
:101AD00000486858480000087741000000007F0077
:101AE0000000004177080000000201020100013CF3
:101AF00042424200C0E0380C0426220202020604E0
:101B000018F0000000071C3020206040404060209A
:101B100020110F060000F01804060202022226041B
:101B20000C38E0C0060F11202060404040602020AB
:101B3000301C0700541B0008000000203C0000007F
:101B400028010008901B00083C000020240700002A
:101B500044010008000000000090D00300000000D5
:101B6000000000000102030406070809000000004D
:101B70000000000000000000000000000000010262
:101B80000304010203040607080902040608000012
:04000005080000ED02
:00000001FF
