:020000040800F2
:100000007807002091010008490D0008A10A0008A6
:10001000DD0C00088D050008FF1A00080000000034
:100020000000000000000000000000005114000863
:10003000FD050008000000007B1000087B1400088C
:10004000A7010008A7010008A7010008A7010008F0
:10005000A7010008A701000829080008A701000857
:10006000A7010008A7010008A7010008A7010008D0
:10007000A7010008A7010008A7010008A7010008C0
:10008000A7010008A7010008A7010008A7010008B0
:10009000A7010008A7010008A7010008A7010008A0
:1000A000A7010008A7010008A7010008A701000890
:1000B000A70100085D160008A7010008A7010008B5
:1000C000A7010008A7010008A7010008A701000870
:1000D000A7010008FD170008A7010008A7010008F4
:1000E000A7010008A7010008A701000800F002F816
:1000F00000F03FF80AA090E8000C82448344AAF183
:100100000107DA4501D100F034F8AFF2090EBAE880
:100110000F0013F0010F18BFFB1A43F0010318473B
:10012000F81E0000181F0000103A24BF78C878C1DC
:10013000FAD8520724BF30C830C144BF04680C60ED
:10014000704700000023002400250026103A28BF35
:1001500078C1FBD8520728BF30C148BF0B60704739
:10016000782900F06780002070471FB51FBD10B5CB
:1001700010BD00F0D9F91146FFF7F7FF01F060FD5F
:1001800000F0F7F903B4FFF7F2FF03BC01F0C0FC85
:1001900008480047FEE7FEE7FEE7FEE7FEE7FEE76A
:1001A000FEE7FEE7FEE7FEE703480449044A054B85
:1001B00070470000ED00000878010020780700205B
:1001C0007803002078030020704700000FB4044932
:1001D00010B503AA029800F079F910BC5DF814FB81
:1001E0003400002070B5044685690068C10601D559
:1001F000302600E02026C00707D070BDD4E90121D9
:1002000030469047206A401C20626D1EF6D570BDB6
:1002100070B5044685690078C00707D170BDD4E980
:10022000012120209047206A401C20626D1EF6D5D7
:1002300070BD000070B504460D4621461068AFF34E
:1002400000802188090502D50F4A7A4402E00E4A4F
:100250007A440E32002104F1240305E000F00F0679
:100260000009965D5E54491C0028F7D120780023D0
:10027000000704D5702D02D009B1022311322046A7
:10028000BDE8704000F0C9B8911D00002DE9F05F95
:10029000894604464FF0000ADFF824B1FB44C0F859
:1002A00020A02046E168884700287DD0252806D078
:1002B000D4E901219047206A401C2062F1E7002523
:1002C0005F462046E16888472028064607DB312E36
:1002D00005D2B81910F8200C08B10543F1E7A807BA
:1002E00001D525F00405C4F81CA00027C4F818A007
:1002F0002A2E09D0304601F004FC38B304EB8708FD
:10030000303EC8F8186019E059F8041B204604EB89
:1003100087029161E1688847012F064618D1E0699C
:10032000002820DA25F020051DE0D8F8180000EBA1
:10033000800006EB40003038C8F818002046E1681D
:100340008847064601F0DDFB0028EED1012F0AD0D8
:100350002E2E08D12046E16888477F1C0646022FD2
:1003600045F02005C4DBA069002803DA404245F0CF
:100370000105A061E80701D025F01005A6B1A6F19E
:100380004100192802D8203645F400654A46314616
:10039000204625604D46FFF7E3FE60B1012807D0F7
:1003A000ED1D25F0070000E007E000F1080978E7FF
:1003B00005F1040975E730467AE7206ABDE8F09F49
:1003C000671D00004FF0000200B5134694469646A4
:1003D000203922BFA0E80C50A0E80C50B1F1200158
:1003E000BFF4F7AF090728BFA0E80C5048BF0CC006
:1003F0005DF804EB890028BF40F8042B08BF704764
:1004000048BF20F8022B11F0804F18BF00F8012BD5
:10041000704770477047704770472DE9F0470D46A9
:1004200099469246044600F124080168880604D5DE
:10043000E06921F01001216000E00120A84201DD07
:10044000471B00E00027A1697A1902EB0900081A8E
:10045000A0612078C00602D42046FFF7C3FE002624
:1004600008E0D4E901211AF806009047206A401CF0
:10047000761C20624E45F4DB2078C0060AD5204663
:10048000FFF7B0FE06E0D4E9012130209047206A52
:10049000401C2062381EA7F10107F4DC07E0D4E914
:1004A000012118F805009047206A401C2062281E90
:1004B000A5F10105F3DC2046FFF7AAFE207800062F
:1004C00002D50220BDE8F0870120FBE7074B70B59D
:1004D0000D467B4400F011F80446284600F020F851
:1004E00010B14FF0FF3070BD204670BD1F170000E7
:1004F00001694A1C02610878704700B58FB0CDE9E8
:1005000001310021059105497944CDE903101146D7
:100510006846FFF7BBFE0FB000BD0000E5FFFFFF20
:10052000007B00F080007047754600F02BF8AE4667
:1005300005006946534620F00700854618B020B5EF
:10054000FFF732FEBDE820404FF000064FF00007F5
:100550004FF000084FF0000B21F00701AC46ACE86B
:10056000C009ACE8C009ACE8C009ACE8C0098D46D8
:10057000704710B50446AFF300802046BDE8104038
:10058000FFF700BE004870471401002000BFFEE7DF
:1005900010B500F09FFD012000F05EFE00BF21209D
:1005A00000F028FE0028FAD0022000F0B5F9102053
:1005B00000F0A4F94FF46011002000F071FE01205A
:1005C00000F068FE00BF392000F014FE0128FAD1C7
:1005D000022000F073FE00BF00F02AFE0828FBD1C5
:1005E000002000F02DFE4FF4806000F03BFE002064
:1005F00000F044FE002000F041FD10BD70472DE9E1
:10060000F047044688461646304601F005FB07468B
:10061000A24647450ADA002504E020202070641C29
:10062000681CC5B2A8EB0700A842F6DC002511E063
:10063000781E401BC1B20A2001F066FB8146B6FB62
:10064000F9F030302070B6FBF9F009FB1066641C3D
:10065000681CC5B2BD42EBDB00202070A4EB0A0091
:1006600080B2BDE8F08770B588B0064620216846A4
:10067000FFF7A8FE6C4644202070641C30202070D8
:10068000641C3A202070641C002506E0715D204641
:1006900000F030FB0444681CC5B2082DF6DB6A4646
:1006A0000421002000F0CEFC6C4644202070641C25
:1006B00031202070641C3A202070641C082506E05C
:1006C000715D204600F016FB0444681CC5B2102D75
:1006D000F6DB6A460521002000F0B4FC08B070BDCE
:1006E00010B503A20121132000F0ACFC10BD0000E6
:1006F0007777772E7869616F6A696A696A692E63AC
:100700006F6D000010B500221146104600F050FC3D
:1007100001220221002000F04BFC10BD10B5022187
:100720001648007800F05AFB1548007890B9134835
:100730000078401C1149087008460078452802DB03
:1007400001200F490870012202210C48007800F0B6
:100750002FFC11E009480078401E0849087008463F
:100760000078002802DC00200549087000220221E0
:100770000248007800F01CFC10BD000004000020BE
:100780000500002010B588B020216846FFF71AFE4A
:100790006C460D480088401C0B49088008460088BC
:1007A00042F20F71884202DD0020074908800422CE
:1007B00005480188204600F093FA6A460321672025
:1007C00000F040FC08B010BD0600002010B588B055
:1007D00020216846FFF7F6FD6C4652202070641C0D
:1007E00065202070641C3A202070641C04220021C3
:1007F000204600F075FA6A460321552000F022FCDD
:1008000008B010BD10B503A20021132000F01AFC9F
:1008100010BD00005350333720526563656976651B
:10082000722056322E30000010B5002404E0002063
:1008300008490855601C84B2402CF8D3064800785B
:1008400020B9044800F05AFE03490870012000F066
:1008500005F810BD54000020300000200149086058
:100860007047000014040140002123498279002AC6
:100870003AD00A46126803689A430B461A600A1D6A
:10088000126803689A430B1D1A60027911440A68C2
:1008900003681A430A60184A0832126803689A43C8
:1008A000154B08331A601A1D126803689A43124BDD
:1008B0000C331A604279102A0ED11A1F126803688D
:1008C0001A430D4B08331A601A1D126803681A4345
:1008D000094B0C331A600DE00749427911440A684C
:1008E00003681A430A6005E0027911440A68036844
:1008F0009A430A60704700000004014005490968F6
:1009000021F01001034A116011460968014311608A
:10091000704700000020024001460020034A106892
:1009200000F03800084310607047000000200240CB
:1009300030B500228B071C0F0F2303FA04F20B4B78
:100940008C1053F824309343084C8D1044F8253014
:1009500023468C1053F824308C07240F00FA04F43B
:100960002343024C8D1044F8253030BD080001406F
:100970002DE9F04102460025002600200023002436
:10098000002791F803C00CF00F0591F803C00CF09C
:10099000100CBCF1000F03D091F802C04CEA050521
:1009A00091F800C0BCF1000F31D0146800202BE09A
:1009B0004FF0010C0CFA00F3B1F800C00CEA03068A
:1009C0009E4220D183004FF00F0C0CFA03F7BC437A
:1009D00005FA03FC4CEA040491F803C0BCF1280FAB
:1009E00006D14FF0010C0CFA00FCC2F814C00AE06A
:1009F00091F803C0BCF1480F05D14FF0010C0CFA7F
:100A000000FCC2F810C0401C0828D1D31460B1F813
:100A100000C0BCF1FF0F34DD546800202EE000F16F
:100A2000080C4FF0010808FA0CF3B1F800C00CEA0A
:100A300003069E4221D183004FF00F0C0CFA03F7FE
:100A4000BC4305FA03FC4CEA040491F803C0BCF172
:100A5000280F05D100F1080C08FA0CF8C2F8148030
:100A600091F803C0BCF1480F07D100F1080C4FF01A
:100A7000010808FA0CF8C2F81080401C0828CED3F0
:100A80005460BDE8F08102460020D3680B400BB1F2
:100A9000012000E00020704741617047016170470C
:100AA00000BFFEE708B50121042000F003FBC020D1
:100AB000ADF8000014208DF8030003208DF802002B
:100AC00069460448FFF754FFC0210248FFF7E6FFDC
:100AD00008BD0000000C014070B5044612480068D3
:100AE00020F07040104908600846006840F040500F
:100AF000086000200D490860002511E0042001F085
:100B000053F8E0090949091D08606006040E012038
:100B10000749C1F89801002004490860681CC5B263
:100B2000082DEBDB70BD0000000C014098812142D4
:100B30000080214210B50F48006820F070400D4938
:100B400008600846006840F04050086001200A49EB
:100B500008600A49C1F89801022001F025F8002038
:100B600005490860022001F01FF800200349C1F880
:100B7000980110BD000C01409C812142008021425F
:100B800010B50F48006820F070400D490860084615
:100B9000006840F04050086000200A4908600A4997
:100BA000C1F89801022000F0FFFF01200549091F4C
:100BB00008600549C1F89C01022000F0F5FF10BD56
:100BC000000C01409C8121420080214210B5124856
:100BD000006820F07040104908600846006840F046
:100BE0008040086001200D4908600D49C1F8980156
:100BF00007E0601CC4B2FA2C03DDFFF7C1FF01203F
:100C000010BD0648803800680028F2D10349091F4A
:100C1000086000BFF4E70000000C01409C81214205
:100C20000080214208B50121042000F043FA01218F
:100C3000082000F03FFA14208DF803000120ADF8E1
:100C4000000003208DF8020069460D48FFF790FE72
:100C500014208DF803004FF40040ADF8000003208D
:100C60008DF8020069460748FFF782FE012104481B
:100C7000FFF714FF4FF400410248FFF70FFF08BDD4
:100C800000080140000C014010B54FF40041084835
:100C9000FFF7F9FE0446012C04D1C1030448FFF715
:100CA000FBFE04E04FF400410148FFF7F7FE10BDE2
:100CB000000C014010B501210748FFF7E4FE04468F
:100CC000012C04D101210448FFF7E6FE03E00121D5
:100CD0000148FFF7E3FE10BD0008014000BFFEE73A
:100CE00070B506460C461546224629463046FFF7A3
:100CF00086FC70BD02460811107010780A2803DACD
:100D000010783030107008E010780F2803DC10786D
:100D10003730107001E020201070521C01F00F00DD
:100D2000107010780A2803DA10783030107008E05C
:100D300010780F2803DC10783730107001E0202085
:100D40001070521C02207047704710B54FF440706D
:100D500000F03AF810BD000070B5002100230F220A
:100D6000C47804B3154C246804F4E064C4F5E0646A
:100D7000210AC1F10403CA40447804FA03F18478DB
:100D80001440214309010E4C0678A155047804F063
:100D90001F050124AC4005786D11AD0005F1E0257B
:100DA000C5F8004109E0047804F01F050124AC40B7
:100DB000044D0678761145F8264070BD0CED00E034
:100DC00000E400E080E100E002490143024A1160D2
:100DD000704700000000FA050CED00E070B5064613
:100DE0000D462946304600F0D1F8002404E00020EA
:100DF00000F0AEF8601CC4B2102CF8DB681CC1B265
:100E0000304600F0C3F8002404E0002000F0A0F811
:100E1000601CC4B2102CF8DB70BD70B5002418E063
:100E2000002504F0070141F0B00000F073F82846F7
:100E300000F070F845F0100000F06CF8002604E0B7
:100E4000002000F085F8701CC6B2802EF8DB601C14
:100E5000C4B2082CE4DB70BD10B5FFF723FE4FF4DD
:100E6000967000F07BFEAE2000F054F8002000F0F9
:100E700051F8102000F04EF8402000F04BF881208F
:100E800000F048F8CF2000F045F8A12000F042F82B
:100E9000C82000F03FF8A62000F03CF8A82000F0A1
:100EA00039F83F2000F036F8D32000F033F8002066
:100EB00000F030F8D52000F02DF8802000F02AF85E
:100EC000D92000F027F8F12000F024F8DA2000F013
:100ED00021F8122000F01EF8DB2000F01BF8402063
:100EE00000F018F8202000F015F8022000F012F8A9
:100EF0008D2000F00FF8142000F00CF8A42000F072
:100F000009F8A62000F006F8FFF787FFAF2000F0F1
:100F100001F810BD70B505460024FFF70BFE7820E0
:100F2000FFF7DAFDFFF752FE04430020FFF7D4FD80
:100F3000FFF74CFE04432846FFF7CEFDFFF746FEC1
:100F40000443FFF71DFE0CB1002070BD0120FCE73B
:100F500070B505460024FFF7EDFD7820FFF7BCFDD6
:100F6000FFF734FE04434020FFF7B6FDFFF72EFEE7
:100F700004432846FFF7B0FDFFF728FE0443FFF7C0
:100F8000FFFD0CB1002070BD0120FCE770B50446E8
:100F90000D4605F1B001C8B2FFF7BCFF102141EAD0
:100FA0001410FFF7B7FF04F00F00FFF7B3FF70BD99
:100FB0002DE9F04107460E46154631463846FFF703
:100FC000E5FF002407E00F4901EB4511085DFFF73D
:100FD000BFFF601CC4B2102CF5DB701CC1B23846D8
:100FE000FFF7D4FF002409E0064901EB451204F1A4
:100FF0001001505CFFF7ACFF601CC4B2102CF3DB97
:10100000BDE8F081681F00082DE9F04106460F4653
:10101000154639463046FFF7B9FF00240BE0A5F12D
:10102000200101EB4101064A02EB4101085DFFF797
:101030008FFF601CC4B2062CF1DBBDE8F08100001C
:10104000281D00082DE9F04104460F4615460026EC
:101050000EE0AA5D39462046FFF7D6FFA01DC4B2B8
:10106000A01D7F2802DD0024781CC7B2701CC6B208
:10107000A85D0028EDD1BDE8F08170470146002051
:10108000034A506820F44040084350607047000015
:101090000010024029B1064AD2690243044BDA61CA
:1010A00004E0034AD2698243014BDA6170470000D1
:1010B0000010024029B1064A92690243044B9A612A
:1010C00004E0034A92698243014B9A617047000031
:1010D000001002400F48006840F001000D49086010
:1010E000084640680C4908400A49486008460068BC
:1010F0000A490840074908600846006820F4802033
:1011000008600846406820F4FE0048604FF41F0065
:1011100088607047001002400000FFF8FFFFF6FEF5
:1011200030B500210022002400232D4D6D6805F00C
:101130000C0121B1042905D0082923D105E0294D4E
:10114000056022E0274D05601FE0254D6D6805F420
:101150007012234D6D6805F48034022505EB924230
:101160001CB9214D554305600BE01D4D6D6805F41C
:1011700000351DB11C4D5543056002E0194D554326
:10118000056002E0174D056000BF00BF144D6D689B
:1011900005F0F0010909154D6B5C0568DD404560FF
:1011A0000F4D6D6805F4E061090A104D6B5C4568F0
:1011B000DD4085600A4D6D6805F46051C90A0B4D2C
:1011C0006B5C4568DD40C560054D6D6805F44041C8
:1011D000890B074D6B5CC568B5FBF3F5056130BD48
:1011E0000010024000127A0000093D00400000207B
:1011F0005000002010B501460022002300204A11B3
:10120000012A02D1094C236806E0022A02D1074CC8
:10121000236A01E0054C636A01F01F020124944037
:101220001C400CB1012000E0002010BD0010024065
:101230000248406800F00C007047000000100240B7
:1012400001460020034A506820F0F0000843506037
:10125000704700000010024001490860704700001C
:101260000000424201460020034A506820F4E0603A
:101270000843506070470000001002400146002003
:10128000034A506820F4605040EAC1005060704743
:101290000010024001490866704700000000424209
:1012A00002460020044B586820F47C1042EA0103F7
:1012B0001843014B5860704700100240014600205F
:1012C000034A506820F00300084350607047000054
:1012D0000010024000B587B001210420FFF7EAFEAC
:1012E00001210803FFF7E6FEE020ADF81800182002
:1012F0008DF81B0003208DF81A0006A91748FFF788
:1013000037FBE0211548FFF7C9FB0020ADF80400CA
:101310004FF48270ADF806000020ADF808000220FE
:10132000ADF80A000120ADF80C004002ADF80E0047
:101330003820ADF810000020ADF812000720ADF8FD
:10134000140001A9064800F065F80121044800F0E6
:1013500047F8FF2000F006F807B000BD0008014084
:101360000030014070B50546002405E0601CC4B2A1
:10137000C82C01DD002070BD02210E4800F03CF8B1
:101380000028F3D029460B4800F042F8002405E07D
:10139000601CC4B2C82C01DD0020ECE70121054827
:1013A00000F02AF80028F3D0024800F02EF8C0B26E
:1013B000E1E700000030014010B50446074800880E
:1013C0004FF6C77108400549088008460088204349
:1013D00008800121014800F003F810BD00300140F1
:1013E00021B1028842F04002028004E002884FF6F8
:1013F000BF731A40028070470246002013890B40D9
:101400000BB1012000E00020704701468889704739
:101410008181704710B50022028802F441520B8886
:101420004C8823438C882343CC8823430C89234353
:101430004C8923438C892343CC8923431A4302805C
:10144000838B4FF2FF74234083830B8A038210BD8A
:101450007047042808D14FF0E021096941F00401E8
:101460004FF0E022116107E04FF0E021096921F01F
:1014700004014FF0E02211617047704708B5012167
:101480000420FFF717FE10208DF80300ADF80000D0
:1014900003208DF8020069460D48FFF769FA102015
:1014A0008DF803000820ADF8000003208DF802003D
:1014B00069460748FFF75CFAFFF70CFF1820FFF7B3
:1014C0007BFF012000F006F800F058F808BD00008E
:1014D0000008014010B50446012C07D10821064838
:1014E000FFF7DCFAC82000F039FB03E008210248CE
:1014F000FFF7D2FA10BD0000000801402DE9F041CD
:101500000746002500260024A04610211A48FFF7B0
:10151000C3FA23E00420FFF725FF002507E0FF20A2
:10152000FFF720FF05EB86017854681CC5B2042D37
:10153000F5DBFF20FFF716FF044604F0800010B132
:101540000020BDE8F081002C05DD08EB040000F070
:10155000FF08701CC6B2202C00D000E0DAE700BF04
:1015600010210548FFF79AFA08F10701C81701EBA7
:101570005070C0F3C700E4E7000801401FB5012127
:101580000846FFF797FD01210820FFF793FD48204B
:101590008DF80F000120ADF80C0003208DF80E002F
:1015A00003A91248FFF7E4F900210120FFF7C0F971
:1015B000012001900C208DF8090000208DF8080012
:1015C00001208DF80A0001A8FFF74EF906208DF8DA
:1015D00000000D208DF8010000208DF80200012090
:1015E0008DF803006846FFF7B7FB1FBD000C0140F4
:1015F00010B500240AE0074A02EB44025178054A7C
:1016000012F8140000F008F8601CC4B21B2CF2DBC6
:1016100010BD0000A91F000870B505460C4610213A
:101620000848FFF739FA0220FFF79CFE2846FFF72B
:1016300099FE2046FFF796FE10210248FFF72EFA8A
:1016400070BD00000008014010B504462146024864
:1016500000F02AF810BD00000004004010B5012180
:101660000C4800F02DF840B101210A4800F019F8AB
:1016700009480068401C08490860074800684FF4A2
:10168000FA71B0FBF1F201FB120008B9FFF712FB8F
:1016900010BD0000000400403C000020CA4302824C
:1016A0007047CA430282704721B1028842F00102AA
:1016B000028004E002884FF6FE731A4002807047F1
:1016C00030B50246002000230024158A05EA0103F4
:1016D000958905EA010413B10CB1012000E0002056
:1016E00030BD1AB183890B43838102E083898B4328
:1016F00083817047002202881D4B98420ED01D4BFB
:1017000098420BD0B0F1804F08D01B4B984205D0C7
:101710001A4B984202D01A4B984204D14FF68F735D
:101720001A404B881A43174B984207D0164B9842E1
:1017300004D04FF6FF431A40CB881A4302808B88AF
:1017400083850B8803850A4B98420BD0094B98423E
:1017500008D00E4B984205D00D4B984202D00D4B4D
:10176000984201D10B7A03860123838270470000DF
:10177000002C0140003401400004004000080040FB
:10178000000C0040001000400014004000400140E8
:1017900000440140004801407FB504460D46012148
:1017A0000220FFF777FC0020ADF80A00ADF8060034
:1017B000ADF80840681E80B2ADF8040001A90E48DB
:1017C000FFF798FF1D208DF8000001208DF8030021
:1017D0000E208DF8010000208DF802006846FFF70A
:1017E000BBFA01210448FFF759FF012211460248C4
:1017F000FFF777FF7FBD00000004004010B540F206
:101800002551194800F0B7F860B3174800F06EF999
:10181000C4B2204600F086F80D2C0FD013481449AE
:101820000988445412490988481CC11700EB5161CA
:10183000C911A0EBC1110E4A118013E000210C4A1E
:101840001088C21700EB5262D211A0EBC212074BF4
:1018500099540748008840F48070054908800A20A0
:1018600000F060F810BD0000003801409400002036
:101870003800002010B586B0044601210420FFF78F
:1018800019FC01218803FFF715FC18208DF81700BB
:101890004FF40070ADF8140003208DF8160005A970
:1018A0001E48FFF765F804208DF817000002ADF818
:1018B000140003208DF8160005A91848FFF758F802
:1018C00001940020ADF810000C20ADF80E000020AF
:1018D000ADF80C00ADF80A00ADF8080001A91048F9
:1018E00000F098F825208DF800000F208DF80100F9
:1018F00000208DF8020001208DF803006846FFF7F4
:101900002BFA012240F22551054800F05EF8012132
:10191000034800F017F806B010BD000000080140B1
:101920000038014010B5044600BF4021044800F0D3
:1019300015F80028F9D02146014800F0DCF810BD68
:101940000038014021B1828942F40052828104E0D2
:1019500082894DF6FF731A4082817047024600204B
:10196000B1F5007F00D100BF13880B400BB10120FF
:1019700000E00020704770B50246002400230025D7
:10198000002040F66A16B14200D100BFC1F34215F3
:1019900001F01F03012606FA03F3012D02D19689F7
:1019A000334006E0022D02D1168A334001E0968AC8
:1019B00033400C12012606FA04F41688344013B1A1
:1019C0000CB1012000E0002070BDF0B503460024FA
:1019D00000260025002040F66A17B94200D100BF5A
:1019E0001846C1F3421401F01F06012707FA06F555
:1019F000012C01D10C3004E0022C01D1103000E0A8
:101A000014301AB107682F43076002E00768AF433C
:101A10000760F0BD2DE9F04786B005460E4600246C
:101A2000A24600BFA1460027B08900B100BF2F46E3
:101A30002C8A4CF6FF700440F08804432C82AC8959
:101A40004EF6F3100440B088318908437189084389
:101A50000443AC81AC8A4FF6FF400440B089044394
:101A6000AC8201A8FFF75CFB1F48874202D1DDF87A
:101A700010A001E0DDF80CA0A88900F4004040B1FE
:101A80000AEBCA0000EB0A1031684900B0FBF1F81C
:101A900007E00AEBCA0000EB0A1031688900B0FBCE
:101AA000F1F86420B8FBF0F004012009642101FB87
:101AB0001089A88900F4004040B1322000EBC90031
:101AC000B0FBF1F000F00700044308E0322000EB27
:101AD00009106421B0FBF1F000F00F0004432C81E9
:101AE00006B0BDE8F0870000003801400146888854
:101AF000C0F308007047C1F308028280704700BF3E
:101B0000FEE730380A2801D20120704700207047D4
:101B1000014600BF7047000010B56FF00400FFF7EA
:101B200098FC0A4800680A49B0FBF1F009490870BE
:101B30000846007800EB4001C1EBC0104FF6FF7182
:101B400001EAC0000449088010BD00001C0000200C
:101B500000127A0000000020020000200146114A15
:101B600012884A434FF0E0235A6100229A611A46D4
:101B7000126942F001021A6100BF4FF0E0221069C1
:101B800000F001021AB100F48032002AF5D04FF0C3
:101B9000E022126922F001024FF0E0231A610022D4
:101BA0009A617047020000200146114A12784A43A8
:101BB0004FF0E0235A6100229A611A46126942F0FE
:101BC00001021A6100BF4FF0E022106900F001022B
:101BD0001AB100F48032002AF5D04FF0E0221269E9
:101BE00022F001024FF0E0231A6100229A6170474F
:101BF0000000002070B504460D4600BF4021054896
:101C0000FFF7ACFE0028F9D0E1B20248FFF773FFFE
:101C1000204670BD0038014001460022002900DA4C
:101C2000494204E0501CC2B20A2091FBF0F10A20A4
:101C300091FBF0F00028F5DC501CC0B270470000AA
:101C4000FEF7A6FCFFF781F8FFF766FF4FF4E130DF
:101C5000FFF710FE40214FF47A70FFF79DFD012041
:101C6000FFF7F2FCFEF7DEFFFFF7F6F8FEF74AFD9E
:101C7000FEF736FDFEF7C6FDFEF7A8FD1648FEF797
:101C8000F2FCFFF7FBFBFFF7B3FC23E013480078FF
:101C900000281FD012A0FEF799FA002406E00E4893
:101CA000015D16A0FEF792FA601CC4B20B480078E2
:101CB0008442F4DB13A0FEF789FAFEF7E5FFFEF796
:101CC00061FDFEF72BFD0448FEF7CDFC0020034923
:101CD000087000BFDAE70000540000203000002048
:101CE0005265636569766520446174612046726F50
:101CF0006D20535033373A20000000002530325811
:101D00002C2000000D0A000010B50246144609B947
:101D1000012010BD002302E05443581CC3B2481EEA
:101D20009842F9DC2046F4E70000000000000000C3
:101D3000BE000000000600060000147F147F14009F
:101D4000004C7A4F320000661668660000384F4D2E
:101D5000320000000003000000003E4100000000CF
:101D6000413E0000001C3E1C000000083E08000030
:101D700000000060000000080808080000004000A3
:101D800000000040300C0300003E41413E00004294
:101D90007F40000000625149460000224949360058
:101DA0000038267F2000004F49493100003E494954
:101DB0003200000371090700003649493600002649
:101DC00049493E00000024000000004024000000BB
:101DD00000081422410000141414140000412214BD
:101DE0000800000251090600000E71497E00007EC5
:101DF00011117E00007F49493600003E414122001A
:101E0000007F41413E00007F49494100007F0909B0
:101E10000100003E41493A00007F08087F00004170
:101E20007F410000003040403F00007F0814630005
:101E3000007F40404000007F06067F00007F0618BC
:101E40007F00007F41417F00007F09090600003EBE
:101E500051617E00007F1929460000264949320061
:101E600000017F010100003F40403F00000F707003
:101E70000F00007F30307F0000631C1C63000304F0
:101E8000780403000061594D430000007F410000C9
:101E9000030C304000000000417F000000020102FE
:101EA000000000404040400000000300000000200F
:101EB00058587800007F48483000003048484800B3
:101EC000003048487F0000305858100000087C0A55
:101ED00008000010A8A87800007F08780000000023
:101EE00074000000008080740000007F102848000B
:101EF00000407F40000000780878780000780808EB
:101F0000700000304848300000F848483000003089
:101F10004848F80000781008080000505868280069
:101F200000087C48000000384040780000186060DD
:101F30001800186038601800004830304800001859
:101F4000A0A07800004868584800000877410000C9
:101F500000007F000000004177080000000201023D
:101F60000100013C42424200C0E0380C042622023B
:101F70000202060418F0000000071C302020604018
:101F80004040602020110F060000F01804060202F5
:101F9000022226040C38E0C0060F112020604040C9
:101FA00040602020301C07001BA60080002417275B
:101FB000012D502F5039103A093B2A3D023E033F74
:101FC0000540054171427D4408453748024C754E35
:101FD0001051665256565858155AF29402A60230BD
:101FE000313233343536373839414243444546403F
:101FF0003058003031323334353637383961626326
:1020000064656640307800040000080000000000AD
:10201000000002000100001038200008000000202D
:1020200054000000280100088C2000085400002003
:102030002407000044010008000000000000000028
:10204000FFFF0000000080BF000080BF000080BFD5
:10205000000080BF0090D0030000000000000000DE
:102060000102030406070809000000000000000048
:102070000000000000000000000000000102030456
:0C20800001020304060708090204060818
:04000005080000ED02
:00000001FF
