:020000040800F2
:1000000018070020B9010008891600081B1600080F
:10001000851600085B140008871C0008000000001B
:100020000000000000000000000000005919000856
:10003000CB140008000000001D17000883190008F9
:10004000CF010008CF010008CF010008CF01000850
:10005000CF010008CF010008CF010008CF01000840
:10006000CF010008CF010008CF010008CF01000830
:10007000CF010008CF010008CF010008CF01000820
:10008000CF010008CF010008CF010008CF01000810
:10009000CF010008CF010008CF010008CF01000800
:1000A000CF010008CF010008CF010008CF010008F0
:1000B000CF010008CF010008CF010008CF010008E0
:1000C000CF010008CF010008CF010008CF010008D0
:1000D000CF01000885190008CF010008CF010008F2
:1000E000CF010008CF010008CF01000800F002F89E
:1000F00000F053F80AA090E8000C82448344AAF16F
:100100000107DA4501D100F048F8AFF2090EBAE86C
:100110000F0013F0010F18BFFB1A43F0010318473B
:10012000781E0000981E0000103A24BF78C878C1DD
:10013000FAD8520724BF30C830C144BF04680C60ED
:10014000704700000023002400250026103A28BF35
:1001500078C1FBD8520728BF30C148BF0B60704739
:10016000662901F0AF86642900F0A080782900F0AC
:10017000D980632900F01284732900F017840020CD
:1001800070471FB500F028FC04000020002101F09A
:1001900083FEE0601FBD10B510BD00F035FD1146B7
:1001A000FFF7EFFF01F0EAFD00F053FD03B4FFF7A6
:1001B000F2FF03BC01F084FD08480047FEE7FEE7BC
:1001C000FEE7FEE7FEE7FEE7FEE7FEE7FEE7FEE707
:1001D00003480449044A054B70470000ED0000083D
:1001E0001801002018070020180300201803002021
:1001F000704700000FB4044910B503AA029800F03C
:10020000D9FB10BC5DF814FB1800002070B5044643
:1002100085690068C10601D5302600E02026C007A8
:1002200007D070BDD4E9012130469047206A401CB8
:1002300020626D1EF6D570BD70B5044685690078E4
:10024000C00707D170BDD4E9012120209047206A62
:10025000401C20626D1EF6D570BD70B50C4605467B
:10026000012A05D02878800600D5EA69002302E03B
:10027000012305E05B1C934202D2E05C0028F9D127
:10028000A869E618C01AA861286A18442862284696
:10029000FFF7BCFF04E0D5E9012114F8010B9047FA
:1002A000B442F8D32846FFF7C7FF70BD2DE9F041EF
:1002B0000646002410687529314616A510D0AFF304
:1002C0000080002802DA404213A507E031688A075F
:1002D00001D512A502E0490704D511A5012401E0CA
:1002E000AFF3008000210A2206F1240709E0B0FBE9
:1002F000F2FCB0FBF2F302FB1C00303078541846DD
:10030000491C0028F3D123462A463046BDE8F04177
:1003100000F0D4B8000000002D0000002B00000009
:100320002000000070B504460D4621461068AFF36A
:1003300000802188090502D50F4A7A4402E00E4A5E
:100340007A440E32002104F1240305E000F00F0688
:100350000009965D5E54491C0028F7D120780023DF
:10036000000704D5702D02D009B1022311322046B6
:10037000BDE8704000F0A2B88A1B00002DE9F05FD4
:10038000894604464FF0000ADFF824B1FB44C0F868
:1003900020A02046E168884700287DD0252806D087
:1003A000D4E901219047206A401C2062F1E7002532
:1003B0005F462046E16888472028064607DB312E45
:1003C00005D2B81910F8200C08B10543F1E7A807C9
:1003D00001D525F00405C4F81CA00027C4F818A016
:1003E0002A2E09D0304601F064FC38B304EB8708AC
:1003F000303EC8F8186019E059F8041B204604EB99
:1004000087029161E1688847012F064618D1E069AB
:10041000002820DA25F020051DE0D8F8180000EBB0
:10042000800006EB40003038C8F818002046E1682C
:100430008847064601F03DFC0028EED1012F0AD086
:100440002E2E08D12046E16888477F1C0646022FE1
:1004500045F02005C4DBA069002803DA404245F0DE
:100460000105A061E80701D025F01005A6B1A6F1AD
:100470004100192802D8203645F400654A46314625
:10048000204625604D46FFF76BFE60B1012807D07E
:10049000ED1D25F0070000E007E000F1080978E70E
:1004A00005F1040975E730467AE7206ABDE8F09F58
:1004B000601B000070477047704770472DE9F04798
:1004C0000D4699469246044600F1240801688806C4
:1004D00004D5E06921F01001216000E00120A8426C
:1004E00001DD471B00E00027A1697A1902EB090032
:1004F000081AA0612078C00602D42046FFF786FEC5
:10050000002608E0D4E901211AF806009047206A85
:10051000401C761C20624E45F4DB2078C0060AD5CC
:100520002046FFF773FE06E0D4E901213020904712
:10053000206A401C2062381EA7F10107F4DC07E0A6
:10054000D4E9012118F805009047206A401C206278
:10055000281EA5F10105F3DC2046FFF76DFE20788B
:10056000000602D50220BDE8F0870120FBE77047B6
:100570002DE9FF4F0C461E464FF0FF378BB0D2E9F6
:100580000001DDF860800A908A46C1F30A5505B97A
:100590003D46002108464FF00000BAF1000F00F47C
:1005A000400005DA00EB80004FF4400101EA500002
:1005B0004FEA9059B9F1010F00DDB9460A9850EAA7
:1005C0004A000ED044F61050A5F2FF3545432F14D3
:1005D000B8F1000F1ED07542291E1EDDC9F10002C0
:1005E0001CE0B8F1010F4FF0000001D0302103E012
:1005F000F24305E02154401CB042FBDB30460022B0
:10060000002121540B99C1F80880C1E900200FB0E6
:10061000BDE8F08FBD1B6D1CDEE74A4600DA69427B
:1006200006A800F07BFA06AB93E8070003AB83E86B
:10063000070050460A9900F055FB8DE80700A0F529
:1006400000501F3800900398002D09DD42F21F0171
:100650004A46084403A90390684600F0B4FD08E048
:10066000A0F500504A461F3803A90390684600F0E1
:10067000BEFD8DE807000004000C03D04FF0FF30F2
:10068000410800E01046B8F1000F03D000220092AC
:1006900015461EE0751E05D400F0A2F930326255F1
:1006A0006D1EF9D5B3460122084302D000227F1CFB
:1006B00004E02078302801D100227F1E002A09970B
:1006C00086D01DE0112D07DA00F08AF9303262552C
:1006D0006D1C50EA0102F5D1084302D00098C8B160
:1006E0000EE00021681E05E0235C625C6354225426
:1006F000401E491C8142F7DBAB46A81B401E0990F7
:10070000002004F80B000B98099AC0F80880C0E993
:10071000002B7CE711264FF0000859E72DE9F04F38
:1007200088460446D21D22F0070191B0D1E90001AC
:10073000CDE90A0101F0A9FA02460B98C00F01D0D9
:100740002D2007E02068810701D52B2002E0202121
:1007500001EAC000032A099001D0072A05DB0346FD
:100760004146204600F09AF90BE12078800601D539
:10077000E06900E00620B8F1650F814606D0B8F1C7
:10078000660F18D0B8F1670F70D131E00020B9F1D1
:10079000110F009001DB112301E009F101030AAA06
:1007A00001A90CA8FFF7E4FEDDE90C70002609F1B1
:1007B0000105834647E001204B4600904FF000477B
:1007C0000AAA01A90CA8FFF7D3FEDDE90DB00C9928
:1007D0005D46002610B909F101000D18B9EB0500BE
:1007E00003D4C0F1FF3609F10105A5EB09002BE0A8
:1007F000B9F1010F01DA4FF001090020B9F1110F31
:100800000090484601DD112300E003460AAA01A931
:100810000CA8FFF7ADFEDDE90C704D4600268346BF
:10082000207800070AD4AB4500DA5D4601A8012D07
:1008300004DD411911F8011C302907D04F4502DAB7
:1008400017F1040F04DA012082460FE06D1EEEE777
:10085000002F02DCED1B3E4403E0781CA84200DDC3
:100860007D1CB81B00F1010A4FF0004720780007FB
:1008700003D4AA4501DB4FF0FF3A0021B7F1004F46
:100880000DF143088DF8431024D002202B23002FB4
:1008900001DA7F422D230A21021EA0F1010000DCB3
:1008A0005FB197FBF1FC97FBF1F201FB1C7C174653
:1008B0000CF1300C08F801CDEEE7A8F1010003704F
:1008C0002188090501D5452100E06521A0F1010835
:1008D00000F8011C09980FA9A1EB0807FF1D00B142
:1008E0000120411901EBEA70A1693844081A401E41
:1008F000A0612078C00602D42046FFF787FC099843
:1009000028B1D4E901219047206A401C2062207858
:10091000C00622D52046FFF779FC1EE0002E04DB3E
:10092000B34502DD01A8805D00E03020D4E901215B
:100930009047206A401C2062761CAAF101005FEA01
:10094000000A0AD100F048F8C0680168405CD4E9A8
:1009500001219047206A401C2062281EA5F1010554
:10096000DCDC07E0D4E9012118F8010B9047206A8C
:10097000401C2062381EA7F10107F3DC2046FFF778
:100980005BFC032011B043E610B5436913B1AFF32C
:10099000008001E0FFF761FC012010BD127800F13A
:1009A00024010A7000224A700122EDE711684FF01D
:1009B000FF32E9E7074B70B50D467B4400F05BF86A
:1009C0000446284600F018F910B14FF0FF3070BD12
:1009D000204670BD9B13000000487047D4000020E3
:1009E00030B5B0F10A024FEA900E71F100034EEA01
:1009F000817EB0EB0E0061EB91014FEA101E4EEAD2
:100A0000017E10EB0E0041EB11114FEA102E4EEA61
:100A1000016E10EB0E0041EB11214FEA104E4EEA31
:100A2000014E10EB0E0041EB1141401841F1000165
:100A30004FEAD00040EA41704FEAD10110EB800547
:100A40004FEA810444EA907444EB01046D1944EBCD
:100A50000404521BA3414FF0000348BF0A3200D5E3
:100A600030BD401C41F1000130BD000001694A1C4D
:100A700002610878704700B58FB0CDE901310021DF
:100A8000059105497944CDE9031011466846FFF701
:100A900075FC0FB000BD0000E5FFFFFF2DE9F04140
:100AA0001F46044603260168072A01F4006004DBA0
:100AB00008B116A505E016A503E008B115A500E0EC
:100AC00015A521F010002060A069C01EA0610FB123
:100AD000401EA0612046FFF799FB4FB1D4E90121E8
:100AE00038469047206A401C2062C01C206206E005
:100AF000206AFAE7D4E9012115F8010B9047761E28
:100B0000F8D22046FFF798FBBDE8F0814E414E0039
:100B10006E616E00494E4600696E66002DE9F04731
:100B2000814616468AB0334878440DC88DE80D00DA
:100B300030487844801C03AC0DC884E80D0041F6B1
:100B40009B300844372190FBF1F290FBF1F5A5F1C1
:100B5000800501FB12041B3C02D56442012000E029
:100B60000020DFF890A080460027FA44AAF1BE0AD0
:100B70000DE0E00709D03246684607EB47010AEB73
:100B8000810100F034FB8DE8070064107F1C002C0D
:100B9000EFD1184F7F44AC3F18E0E80714D007EBC3
:100BA00004100DF1180A90E80E008AE80E00C068E3
:100BB000F04201D198190890324606A903A800F026
:100BC00016FB03AB83E807006D10641C002DE4D115
:100BD00032466946B8F1000F03A802D000F0F3FADC
:100BE00001E000F004FBC9E90001C9F808200AB0DF
:100BF000BDE8F08754140000007B00F080007047CF
:100C000000487047B40000207546FFF7F9FFAE4674
:100C100005006946534620F00700854618B020B508
:100C2000FFF7D6FABDE820404FF000064FF000076E
:100C30004FF000084FF0000B21F00701AC46ACE884
:100C4000C009ACE8C009ACE8C009ACE8C0098D46F1
:100C5000704710B50446AFF300802046BDE8104051
:100C6000FFF7A4BA4FF0013C50F8042B51F8043BB5
:100C70009A4221D1A2EB0C03934313EACC1317D170
:100C800050F8042B51F8043B9A4215D1A2EB0C0307
:100C9000934313EACC130BD150F8042B51F8043BC7
:100CA0009A4209D1A2EB0C03934313EACC13DBD095
:100CB0004FF00000704700BFD01A01BAB1FA81F1BD
:100CC00001F0180122FA01F0CB40C1F12001DBB2A2
:100CD000C0B2C01A2CFA01F3D11A914311EAC31120
:100CE000E6D170475FEA400C08BF91F0000F4FEA71
:100CF0008C234FEAC12243EA51514FEA1C5018BFDE
:100D000000F5F0404FEA300018BF41F000415FEAC3
:100D10006C5C00F02980BCF1FF3F08BF40F08040D0
:100D20007047130C06BF12044FF0100C4FF0000C6C
:100D3000130E04BF12020CF1080C130F04BF1201B2
:100D40000CF1040C930F04BF92000CF1020CD30FB2
:100D500004BF52000CF1010C11464FF00002A0F14B
:100D60001F00A0EB0C00704711F0004F08BF704748
:100D700031F000413FF4D5AF0B0C06BF09044FF032
:100D8000100C4FF0000C0B0E04BF09020CF1080C04
:100D90000B0F04BF09010CF1040C8B0F04BF890079
:100DA0000CF1020CCB0F04BF49000CF1010CCCF18B
:100DB0002003A0EB0C0022FA03F302FA0CF241EA42
:100DC000030100F10100704720F07F4C80EA03002E
:100DD00023F07F47ACEB070303F57C5300F00040A2
:100DE00003F1FF032DE980494FEA154B09B44FEA9F
:100DF000144325EA0B4E24EA03480FF2042606EBBF
:100E0000132749083E785FEA320203FB0667C7F5FD
:100E1000000707FB06F64FEA54374FEAD64606F1BD
:100E2000020607FB066CCCF1005C4FEA1C472CEA7B
:100E3000074C07FB06F40CFB06F504EB15464FEADE
:100E4000961634BF00204FF000404FEAD13706FB22
:100E500007FC4FEA1C4C0CFB0BF7D21B03FB0CF7F7
:100E600061EB07010CFB0EF7B0EB074072EB17428A
:100E70000CFB08F734BFA2EB0742B2EB074261EB71
:100E800017414FEA0C444FEA910706FB07FC4FEA73
:100E90001C4C0CFB0BF7B0EBC74072EB573203FB5B
:100EA0000CF734BFA2EBC742B2EBC74261EB57313C
:100EB0000CFB0EF7B0EBC70072EB57720CFB08F798
:100EC00034BFA2EBC702B2EBC70261EB5771039FBD
:100ED0004FEA816141EA921104EBCC044FEAD13729
:100EE0004FEA826206FB07FC42EA90124FEA8060FA
:100EF0004FEA1C4C0CFB0BF7D21B03FB0CF761EB0E
:100F000007010CFB0EF7B0EB074072EB17420CFB2E
:100F100008F734BFA2EB0742B2EB074261EB17417F
:100F20004FEA8C554FEA910704EB9C2406FB07FC23
:100F30004FEA1C4C0CFB0BF7B0EBC74072EB57327F
:100F400003FB0CF734BFA2EBC742B2EBC74261EB25
:100F500057310CFB0EF7B0EBC70072EB57720CFB6E
:100F600008F734BFA2EBC702B2EBC70261EB5771BF
:100F700015EB4C254FEA816141EA92114FEA8262FA
:100F80004FEAD13742EA901206FB07FC44F1000415
:100F90004FEA80604FEA1C4C0CFB0BF7D21B03FBA3
:100FA0000CF761EB07010CFB0EF7B0EB074072EB9F
:100FB00017420CFB08F734BFA2EB0742B2EB074223
:100FC00061EB174115EB1C154FEA813141EA924163
:100FD0004FEA823242EA90424FEA80304FEA0C7682
:100FE00044F1000448EA03434EEA0B484FF0000E78
:100FF000B2EB080C71EB030724BF624639464EEB97
:101000000E0E4FF0000B0018524149414BEB0B0BF9
:10101000B2EB080C71EB03077BF1000B24BF6246B7
:1010200039464EEB0E0E4FF0000B0018524149416D
:101030004BEB0B0BB2EB080C71EB03077BF1000BD6
:1010400024BF624639464EEB0E0E51EA020718BF26
:1010500046F0010616EB0E7655F1000254F1000140
:1010600003D5BDE88901BDE80088BDE88901BDE878
:101070000048B619524141EB0101A3F10103704749
:1010800080807F7E7D7C7B7A7978777676757473C5
:10109000727171706F6E6E6D6C6C6B6A6A69686884
:1010A000676666656464636362616160605F5F5E1A
:1010B0005E5D5D5C5C5B5B5A5A5959585857575690
:1010C00056555555545453535252525151505050F5
:1010D0004F4F4F4E4E4D4D4D4C4C4C4B4B4B4A4A47
:1010E0004A4949494848484747474746464645458B
:1010F00045444444444343434342424242414141C4
:10110000002B26D4770021D01CB54FEA370703B453
:101110004FF010004FF010014FF000000FBCBDE881
:1011200010400BF1010BBBF1010F08BF5FEA17077D
:1011300022BF12F1010211F101014FF0004143F110
:10114000000300F0004043EA00007047F9D357085D
:10115000DAE746EA064613F1400F4FEA16461FDD6E
:1011600013F1200FDFBF16430A46002120335B42F4
:10117000C8D0C3F1200746EA064602FA07F74FEA4D
:10118000164646EA0706C3F1200722FA03F201FADF
:1011900007F721FA03F14FF0000342EA0702B1E733
:1011A00046EA020646EA06464FEA164646EA0106BF
:1011B000BCBF46EA0646360C4FF000034FF0000273
:1011C0004FF000019EE72DE9C048934630B491E806
:1011D000380007C831EA400C48BF34EA430C03D555
:1011E000FFF7F2FDFFF78CFFF0BCBDE800882DE9AA
:1011F000C048934630B491E8380007C810F0804FDB
:1012000008BF13F0804F03D100F005F8FFF778FF17
:10121000F0BCBDE8008820F07F4780EA030023F09F
:101220007F4C07EB0C03A3F57C5300F00040A3F1C7
:10123000FE0392F0000F00F0B38095F0000F00F075
:1012400077802DE901494FEA11404FEA144621EA1F
:10125000004800FB06FC24EA064708FB06F607FBED
:1012600008F800FB07F718EB06484CEB164C4FEA62
:10127000124B18EB07484FEA15464CEB174022EA91
:101280000B4E0BFB06FC25EA06470EFB06F607FB9A
:101290000EFE0BFB07F71EEB064E4CEB164C4FF009
:1012A00000061EEB074E4CEB174B18EB0B0840F1FA
:1012B000000018EB0E0B58EB000840F100008F1AED
:1012C0004FF000013CBFC943661B14BFB5EB040CD3
:1012D00000213CBFC943F61B4FEA17444EEA8E0E6D
:1012E00027EA04454FEA1C4704FB07622CEA074C37
:1012F00005FB07F70CFB05F604FB0CFC16EB074699
:1013000042EB174216EB0C4642EB1C421BEB060667
:1013100058EB0202414146EA9E0601D5BDE801892B
:10132000B619524141EB0101A3F10103BDE8018966
:101330004FEA14454FEA114724EA054621EA074CD3
:1013400005FB07F406FB07F70CFB06F105FB0CFC9D
:1013500011EB074144EB17444FEA124711EB0C41E4
:1013600044EB1C4422EA074C05FB07F206FB07F797
:101370000CFB06F605FB0CFC16EB074642EB17428E
:1013800016EB0C4642EB1C456A1854F1000148BFAD
:101390007047B619524141EB0101A3F101037047B7
:1013A00095F0000F37D04FEA11424FEA144721EA77
:1013B000024624EA074C02FB07F106FB07F70CFB89
:1013C00006F402FB0CFC14EB074441EB17414FEA17
:1013D000154714EB0C4441EB1C4125EA074C02FB7A
:1013E00007F506FB07F70CFB06F602FB0CFC16EBF9
:1013F000074645EB174516EB0C4645EB1C42121908
:1014000051F1000148BF7047B619524141EB01014B
:10141000A3F1010370474FEA14454FEA114724EA4C
:10142000054621EA074C05FB07F106FB07F70CFB15
:1014300006F24FF0000605FB0CFC12EB074241EBF5
:10144000174112EB0C4251EB1C4148BF70479218F8
:1014500041EB0101A3F10103704700BFFEE710B5A6
:1014600000F07AF9012000F039FA00BF212000F0E5
:1014700003FA0028FAD0022000F036F8102000F01D
:1014800025F84FF46011002000F04CFA012000F024
:1014900043FA00BF392000F0EFF90128FAD1022009
:1014A00000F04EFA00BF00F005FA0828FBD100203A
:1014B00000F008FA4FF4806000F016FA002000F007
:1014C0001FFA002000F02CF910BD7047054909688B
:1014D00021F01001034A11601146096801431160AF
:1014E000704700000020024001460020034A1068B7
:1014F00000F03800084310607047000000200240F0
:101500002DE9F0410246002500260020002300249A
:10151000002791F803C00CF00F0591F803C00CF000
:10152000100CBCF1000F03D091F802C04CEA050585
:1015300091F800C0BCF1000F31D0146800202BE0FE
:101540004FF0010C0CFA00F3B1F800C00CEA0306EE
:101550009E4220D183004FF00F0C0CFA03F7BC43DE
:1015600005FA03FC4CEA040491F803C0BCF1280F0F
:1015700006D14FF0010C0CFA00FCC2F814C00AE0CE
:1015800091F803C0BCF1480F05D14FF0010C0CFAE3
:1015900000FCC2F810C0401C0828D1D31460B1F878
:1015A00000C0BCF1FF0F34DD546800202EE000F1D4
:1015B000080C4FF0010808FA0CF3B1F800C00CEA6F
:1015C00003069E4221D183004FF00F0C0CFA03F763
:1015D000BC4305FA03FC4CEA040491F803C0BCF1D7
:1015E000280F05D100F1080C08FA0CF8C2F8148095
:1015F00091F803C0BCF1480F07D100F1080C4FF07F
:10160000010808FA0CF8C2F81080401C0828CED354
:101610005460BDE8F0810161704700BFFEE7000043
:1016200008B50121042000F087F80121082000F00E
:1016300083F814208DF803000120ADF8000003208A
:101640008DF8020069460D48FFF75AFF14208DF807
:1016500003004FF40040ADF8000003208DF80200B5
:1016600069460748FFF74CFF01210448FFF7D3FF05
:101670004FF400410248FFF7CEFF08BD00080140CB
:10168000000C014000BFFEE7704710B54FF44070FA
:1016900000F03AF810BD000070B5002100230F22C1
:1016A000C47804B3154C246804F4E064C4F5E06421
:1016B000210AC1F10403CA40447804FA03F1847892
:1016C0001440214309010E4C0678A155047804F01A
:1016D0001F050124AC4005786D11AD0005F1E02532
:1016E000C5F8004109E0047804F01F050124AC406E
:1016F000044D0678761145F8264070BD0CED00E0EB
:1017000000E400E080E100E002490143024A116088
:10171000704700000000FA050CED00E07047000083
:1017200001460020034A506820F4404008435060BE
:10173000704700000010024029B1064A9269024336
:10174000044B9A6104E0034A92698243014B9A6117
:1017500070470000001002400F48006840F0010090
:101760000D490860084640680C4908400A4948602D
:10177000084600680A4908400749086008460068AA
:1017800020F4802008600846406820F4FE0048608D
:101790004FF41F0088607047001002400000FFF8FF
:1017A000FFFFF6FE30B500210022002400232D4D5E
:1017B0006D6805F00C0121B1042905D0082923D159
:1017C00005E0294D056022E0274D05601FE0254D0D
:1017D0006D6805F47012234D6D6805F480340225A0
:1017E00005EB92421CB9214D554305600BE01D4DA0
:1017F0006D6805F400351DB11C4D5543056002E0D0
:10180000194D5543056002E0174D056000BF00BF4C
:10181000144D6D6805F0F0010909154D6B5C056804
:10182000DD4045600F4D6D6805F4E061090A104D1B
:101830006B5C4568DD4085600A4D6D6805F460515C
:10184000C90A0B4D6B5C4568DD40C560054D6D6890
:1018500005F44041890B074D6B5CC568B5FBF3F59A
:10186000056130BD0010024000127A0000093D0001
:101870001E0000202E00002010B50146002200238B
:1018800000204A11012A02D1094C236806E0022AED
:1018900002D1074C236A01E0054C636A01F01F0284
:1018A000012494401C400CB1012000E0002010BD38
:1018B000001002400248406800F00C007047000031
:1018C0000010024001460020034A506820F0F0005A
:1018D0000843506070470000001002400149086052
:1018E000704700000000424201460020034A506851
:1018F00020F4E06008435060704700000010024090
:1019000001460020034A506820F4605040EAC100BC
:10191000506070470010024001490866704700009F
:101920000000424202460020044B586820F47C101C
:1019300042EA01031843014B58607047001002400F
:1019400001460020034A506820F00300084350601D
:1019500070470000001002407047042808D14FF083
:10196000E021096941F004014FF0E022116107E034
:101970004FF0E021096921F004014FF0E0221161EC
:101980007047704710B540F22551194800F0B7F87C
:1019900060B3174800F06EF9C4B2204600F086F834
:1019A0000D2C0FD013481449098844541249098852
:1019B000481CC11700EB5161C911A0EBC1110E4ABF
:1019C000118013E000210C4A1088C21700EB52620C
:1019D000D211A0EBC212074B99540748008840F47B
:1019E0008070054908800A2000F060F810BD0000F2
:1019F00000380140340000201C00002010B586B0E3
:101A0000044601210420FFF797FE01218803FFF718
:101A100093FE18208DF817004FF40070ADF81400F5
:101A200003208DF8160005A91E48FFF769FD042064
:101A30008DF817000002ADF8140003208DF8160091
:101A400005A91848FFF75CFD01940020ADF81000CF
:101A50000C20ADF80E000020ADF80C00ADF80A0027
:101A6000ADF8080001A9104800F098F825208DF87D
:101A700000000F208DF8010000208DF802000120E9
:101A80008DF803006846FFF707FE012240F225515A
:101A9000054800F05EF80121034800F017F806B091
:101AA00010BD0000000801400038014010B5044698
:101AB00000BF4021044800F015F80028F9D0214665
:101AC000014800F0DCF810BD0038014021B18289E6
:101AD00042F40052828104E082894DF6FF731A407D
:101AE0008281704702460020B1F5007F00D100BF1F
:101AF00013880B400BB1012000E00020704770B547
:101B00000246002400230025002040F66A16B14258
:101B100000D100BFC1F3421501F01F03012606FAF0
:101B200003F3012D02D19689334006E0022D02D144
:101B3000168A334001E0968A33400C12012606FAD9
:101B400004F41688344013B10CB1012000E00020E9
:101B500070BDF0B50346002400260025002040F6A5
:101B60006A17B94200D100BF1846C1F3421401F010
:101B70001F06012707FA06F5012C01D10C3004E0FD
:101B8000022C01D1103000E014301AB107682F4345
:101B9000076002E00768AF430760F0BD2DE9F0473A
:101BA00086B005460E460024A24600BFA146002787
:101BB000B08900B100BF2F462C8A4CF6FF7004405C
:101BC000F08804432C82AC894EF6F3100440B088B0
:101BD00031890843718908430443AC81AC8A4FF6CC
:101BE000FF400440B0890443AC8201A8FFF7DAFD4E
:101BF0001F48874202D1DDF810A001E0DDF80CA0FB
:101C0000A88900F4004040B10AEBCA0000EB0A10BA
:101C100031684900B0FBF1F807E00AEBCA0000EBBD
:101C20000A1031688900B0FBF1F86420B8FBF0F0CD
:101C300004012009642101FB1089A88900F40040F7
:101C400040B1322000EBC900B0FBF1F000F007001A
:101C5000044308E0322000EB09106421B0FBF1F0EE
:101C600000F00F0004432C8106B0BDE8F0870000AF
:101C70000038014001468888C0F308007047C1F36E
:101C800008028280704700BFFEE7490050EAC12089
:101C900018BF04204A0D18BF40F0010040F2FF7247
:101CA000B2EB515F08BF40F00200012808BF0520D9
:101CB000704730380A2801D2012070470020704751
:101CC000014600BF7047000010B56FF00400FFF739
:101CD00044FE0A4800680A49B0FBF1F0094908705F
:101CE0000846007800EB4001C1EBC0104FF6FF71D1
:101CF00001EAC0000449088010BD00000400002073
:101D000000127A0000000020020000200146114A63
:101D100012884A434FF0E0235A6100229A611A4622
:101D2000126942F001021A6100BF4FF0E02210690F
:101D300000F001021AB100F48032002AF5D04FF011
:101D4000E022126922F001024FF0E0231A61002222
:101D50009A6170470200002070B504460D4600BF2E
:101D600040210548FFF7BEFE0028F9D0E1B2024845
:101D7000FFF785FF204670BD00380140FFF76FFB7D
:101D8000FFF783FCFFF7A0FF4FF4E130FFF736FECB
:101D9000FFF746FC25E013A0FEF72CFA1AA120A0BD
:101DA000FEF728FA42F210711FA0FEF723FA412134
:101DB00020A0FEF71FFAAA2121A0FEF71BFA254A50
:101DC000254B26A0FEF716FA27A0FEF713FA2CA043
:101DD000FEF710FA03A0FEF70DFA4FF4FA70FFF7C2
:101DE00095FFD8E72D2D2D2D2D2D2D2D2D2D2D2D84
:101DF0002D2D2D2D2D2D2D2D2D2D2D2D2D2D2D2D13
:101E00002D2D2D0D0A00000053544D3332205072F9
:101E1000696E746620546573742E2E2E00000000C7
:101E200025730D0A00000000CAAEBDF8D6C63A25DB
:101E3000640D0A00D7D6B7FBD0CD3A25630D0A0052
:101E4000CAAEC1F9BDF8D6C63A3078253032580D41
:101E50000A0000005D1D5B2ACAC0F33FB8A1B5E3CC
:101E6000CAFD3A25660D0A007777772E7869616F8B
:101E70006A696A696A692E636F6D0D0A0000000065
:101E800044657369676E65642042792044656174B6
:101E900068676F640D0A000010B500290AD0087841
:101EA000002807D005487844FEF7DCFE002801D062
:101EB000002010BD0248784410BD0000120100004F
:101EC0000A010000FEF72ABC303132333435363790
:101ED000383941424344454640305800303132336E
:101EE000343536373839616263646566403078006E
:101EF00004000008000000000000000200010000D3
:101F00001000000002400000000000A000000000DF
:101F100005400000000000C8000000000C40000068
:101F20000000409C00000000194000000020BCBEE2
:101F30000000000034400000BFC91B8E00000004F8
:101F4000B5400000504BCFD06607E2CF0100000043
:101F50006C4100003E8251AADFEEA7340100000070
:101F6000D9420000DCB5A0E23A301F97FFFFFFFF27
:101F7000B4450000FD25A0C8E9A3C14FFFFFFFFF46
:101F8000FF3F00000000008000000000FF3F000055
:101F90000000008000000000D41F000800000020A6
:101FA0003400000028010008082000083400002048
:101FB000E4060000440100081C000000430000008B
:101FC000F8FFFFFF0C0000000E0000000F000000F3
:101FD0002E000000000000000090D0030000000070
:101FE00000000000010203040607080900000000C9
:101FF00000000000000001020304010203040607C0
:082000000809020406080000B3
:04000005080000ED02
:00000001FF
